S01F0000436F6D6D756E69636174696F6E735F70726F746F636F6C2E737265636B
S11300000C942A000C9447000C9447000C9447006D
S11300100C9447000C9447000C9447000C94470040
S11300200C9447000C9447000C9447000C94470030
S11300300C9447000C9447000C9447000C94470020
S11300400C9447000C9447000C9447000C94470010
S11300500C94470011241FBECFE5D8E0DEBFCDBF0E
S113006010E0A0E6B0E0E2E5F1E002C005900D92F8
S1130070A036B107D9F710E0A0E6B0E001C01D92A8
S1130080A036B107E1F70E9449000C94A7000C9434
S11300900000FFCFA0E0B0E0880F991FAA1FBB1F8C
S11300A0880F991FAA1FBB1F9C01AD01220F331F8C
S11300B0441F551F220F331F441F551F60E072E178
S11300C08AE790E00E9485002150304030BD29B974
S11300D08AB188618AB986E880BD08955D9BFECFA8
S11300E08CB908955F9BFECF8CB10895CF93DF93B5
S11300F0EC018881882331F021960E946E00899159
S11301008823D9F7DF91CF910895A1E21A2EAA1B73
S1130110BB1BFD010DC0AA1FBB1FEE1FFF1FA217B3
S1130120B307E407F50720F0A21BB30BE40BF50BB0
S1130130661F771F881F991F1A9469F76095709539
S1130140809590959B01AC01BD01CF010895F89471
S1050150FFCFDB
S9030000FC
