S00B00004943552E7372656338
S11300000C942A000C9447000C9447000C9447006D
S11300100C9447000C9447000C9447000C94470040
S11300200C9447000C9447000C9447000C94470030
S11300300C9447000C9447000C9447000C94470020
S11300400C9447000C9447000C9447000C94470010
S11300500C94470011241FBECFE5D8E0DEBFCDBF0E
S113006010E0A0E6B0E0E2ECF3E102C005900D92EE
S1130070A03CB107D9F710E0A0ECB0E001C01D929C
S1130080A03CB107E1F70E948D050C94DF090C94A4
S113009000000F931F93CF93DF93C82FD62F8A01AD
S11300A0CA0160E670E00E94D609282F392F211575
S11300B0310559F0C80167E670E00E94D609282F7F
S11300C0392F2115310509F04BC0C43409F43CC063
S11300D0C53440F4C23401F1C33450F5C13409F0DD
S11300E0A0C00EC0C236C1F0C33620F4C13609F038
S11300F098C006C0C336E1F0C43609F092C024C0EB
S11301004AB321E030E0C90102C0880F991FDA9593
S1130110E2F7842B8ABB85C047B321E030E0C901F4
S113012002C0880F991FDA95E2F7842B87BB79C048
S113013044B321E030E0C90102C0880F991FDA9569
S1130140E2F7842B84BB6DC041B321E030E0C901E8
S113015002C0880F991FDA95E2F7842B81BB61C036
S1130160C8016EE670E00E94D609282F392F2115A8
S1130170310559F0C80164E770E00E94D609282FC0
S1130180392F2115310509F04CC0C43409F43DC0A0
S1130190C53440F4C234F9F0C33450F5C13409F025
S11301A040C00CC0C236B9F0C33618F4C136C9F524
S11301B005C0C336E9F0C436A1F527C04AB321E02F
S11301C030E0C90102C0880F991FDA95E2F78095E3
S11301D084238ABB26C047B321E030E0C90102C0B2
S11301E0880F991FDA95E2F78095842387BB19C09D
S11301F044B321E030E0C90102C0880F991FDA95A9
S1130200E2F78095842384BB0CC041B321E030E045
S1130210C90102C0880F991FDA95E2F780958423FB
S113022081BBDF91CF911F910F9108950F931F937D
S1130230CF93DF93C82FD62F8A01CA016AE770E0F3
S11302400E94D609282F392F21153105A9F0C8019C
S11302506FE770E00E94D609282F392F2115310548
S113026059F0C80164E870E00E94D609282F392F9C
S11302702115310509F04BC0C43409F43CC0C53420
S113028040F4C23401F1C33450F5C13409F0AAC0BA
S11302900EC0C236C1F0C33620F4C13609F0A2C084
S11302A006C0C336E1F0C43609F09CC024C04BB389
S11302B021E030E0C90102C0880F991FDA95E2F706
S11302C0842B8BBB8FC048B321E030E0C90102C04E
S11302D0880F991FDA95E2F7842B88BB83C045B356
S11302E021E030E0C90102C0880F991FDA95E2F7D6
S11302F0842B85BB77C042B321E030E0C90102C042
S1130300880F991FDA95E2F7842B82BB6BC0C80172
S113031066E870E00E94D609282F392F211531058F
S1130320A9F0C8016AE870E00E94D609282F392F85
S11303302115310559F0C8016EE870E00E94D60914
S1130340282F392F2115310509F04CC0C43409F484
S11303503DC0C53440F4C234F9F0C33450F5C1345F
S113036009F040C00CC0C236B9F0C33618F4C13627
S1130370C9F505C0C336E9F0C436A1F527C04BB3AF
S113038021E030E0C90102C0880F991FDA95E2F735
S1130390809584238BBB26C048B321E030E0C9019B
S11303A002C0880F991FDA95E2F78095842388BBF1
S11303B019C045B321E030E0C90102C0880F991F7C
S11303C0DA95E2F78095842385BB0CC042B321E023
S11303D030E0C90102C0880F991FDA95E2F78095D1
S11303E0842382BBDF91CF911F910F9108958434B0
S11303F009F43DC0853440F48234F9F0833450F577
S1130400813409F040C00CC08236B9F0833618F448
S11304108136C9F505C08336E9F08436A1F527C0D5
S11304202BB381E090E0AC0102C0440F551F6A95E4
S1130430E2F7BA0162276BBB089528B381E090E02C
S1130440AC0102C0440F551F6A95E2F7BA01622756
S113045068BB089525B381E090E0AC0102C0440F6D
S1130460551F6A95E2F7BA01622765BB089522B366
S113047081E090E0AC0102C0440F551F6A95E2F799
S1130480BA01622762BB0895843409F44EC08534EE
S113049040F4823431F18334B0F5813409F057C02B
S11304A00EC08236F1F0833620F4813609F04FC055
S11304B006C0833641F1843609F049C036C029B3F9
S11304C081E090E0062E02C0880F991F0A94E2F79B
S11304D030E08223932302C0959587956A95E2F7CD
S11304E0089526B381E090E0062E02C0880F991F7C
S11304F00A94E2F730E08223932302C0959587950E
S11305006A95E2F7089523B381E090E0062E02C0D5
S1130510880F991F0A94E2F730E08223932302C0E4
S1130520959587956A95E2F7089520B381E090E068
S1130530062E02C0880F991F0A94E2F730E0822346
S1130540932302C0959587956A95E2F708950895D7
S11305500F931F93CF93C82F8B01CB0160E670E0FC
S11305600E94D609282F392F2115310551F0C801D1
S113057067E670E00E94D609282F392F211531052E
S113058031F5C43409F1C53440F4C234B9F0C3348C
S1130590C0F4C13409F04DC00EC0C23679F0C33680
S11305A020F4C13609F045C006C0C33651F0C43644
S11305B009F03FC009C08FEF8ABB3BC08FEF87BBF8
S11305C038C08FEF84BB35C08FEF81BB32C0C80108
S11305D06EE670E00E94D609282F392F21153105C7
S11305E051F0C80164E770E00E94D609282F392F22
S11305F021153105F1F4C434D9F0C53438F4C234CA
S113060099F0C33498F4C134A1F40CC0C23661F03B
S1130610C33618F4C13669F405C0C33639F0C4369C
S113062041F406C01ABA05C017BA03C014BA01C00F
S113063011BACF911F910F9108958434D9F0853464
S113064038F4823499F0833498F48134A1F40CC0E2
S1130650823661F0833618F4813669F405C0833636
S113066039F0843641F406C06BBB089568BB089525
S113067065BB089562BB08958434D9F0853438F499
S1130680823499F0833498F48134A9F40CC082360E
S113069061F0833618F4813671F405C0833639F07D
S11306A0843649F406C089B3089586B3089583B3A4
S11306B0089580B308950895843409F1853438F495
S11306C08234A9F08334B8F48134E1F40CC0823666
S11306D071F0833618F48136A9F405C0833659F0D5
S11306E0843681F40CC08BB380958BBB089588B39A
S11306F0809588BB089585B3809585BB089582B3A2
S1130700809582BB0895843409F471C0853448F41B
S1130710823499F1833408F04DC0813409F083C0E8
S11307200FC0823651F1833620F4813609F07BC044
S113073007C0833609F43EC0843609F074C057C03C
S1130740413069F42BB381E090E0AC0102C0440F66
S1130750551F6A95E2F7BA01622B6BBB08952BB360
S113076081E090E0AC0102C0440F551F6A95E2F7A6
S1130770BA01609562236BBB0895413069F428B3D4
S113078081E090E0AC0102C0440F551F6A95E2F786
S1130790BA01622B68BB089528B381E090E0AC01F4
S11307A002C0440F551F6A95E2F7BA0160956223AF
S11307B068BB0895413069F425B381E090E0AC0151
S11307C002C0440F551F6A95E2F7BA01622B65BB5C
S11307D0089525B381E090E0AC0102C0440F551F99
S11307E06A95E2F7BA016095622365BB08954130CA
S11307F069F422B381E090E0AC0102C0440F551FBC
S11308006A95E2F7BA01622B62BB089522B381E0D4
S113081090E0AC0102C0440F551F6A95E2F7BA019B
S11308206095622362BB0895EF92FF921F93CF936A
S1130830DF9300D000D0CDB7DEB7182F8EE890E05C
S11308409A83898384E890E09C838B83E62EFF243B
S1130850F701E170F070EE0FFF1F81E090E08C0F64
S11308609D1FE80FF91F40815181812F60E00E9494
S11308701601F701E270F07081E090E08C0F9D1F8B
S1130880E80FF91F40815181812F61E00E94160118
S1130890F701E470F070F595E795F595E795EE0F9F
S11308A0FF1F81E090E08C0F9D1FE80FF91F40812E
S11308B05181812F62E00E94160198E0E922FF2411
S11308C0F701F595E795F595E795F595E795EE0F1D
S11308D0FF1F81E090E08C0F9D1FE80FF91F4081FE
S11308E05181812F63E00E9416010F900F900F90A9
S11308F00F90DF91CF911F91FF90EF900895EF92A9
S1130900FF921F93CF93DF9300D000D0CDB7DEB713
S1130910182F8EE890E09A83898384E890E09C8382
S11309208B83E62EFF24F701E170F070EE0FFF1FBA
S113093081E090E08C0F9D1FE80FF91F40815181E9
S1130940812F64E00E941601F701E270F07081E0EB
S113095090E08C0F9D1FE80FF91F40815181812F7A
S113096065E00E941601F701E470F070F595E795D3
S1130970F595E795EE0FFF1F81E090E08C0F9D1F2A
S1130980E80FF91F40815181812F66E00E94160112
S113099098E0E922FF24F701F595E795F595E795A9
S11309A0F595E795EE0FFF1F81E090E08C0F9D1FFA
S11309B0E80FF91F40815181812F67E00E941601E1
S11309C00F900F900F900F90DF91CF911F91FF9098
S11309D0EF9008956F70843451F1853438F4823483
S11309E0C1F08334E8F4813441F50CC0823689F0D7
S11309F0833618F4813609F505C0833689F08436C8
S1130A00E1F415C08BB3807F8BBB8BB3682B6BBBBE
S1130A10089588B3807F88BB88B3682B68BB08952A
S1130A2085B3807F85BB85B3682B65BB089582B38E
S1130A30807F82BB82B3682B62BB08956295607F1E
S1130A40843451F1853438F48234C1F08334E8F4C9
S1130A50813441F50CC0823689F0833618F481362E
S1130A6009F505C0833689F08436E1F415C08BB3EB
S1130A70807F8BBB8BB3682B6BBB089588B3807F5F
S1130A8088BB88B3682B68BB089585B3807F85BB1A
S1130A9085B3682B65BB089582B3807F82BB82B324
S1130AA0682B62BB08951F93CF93DF93182FC0E682
S1130AB0D0E060E0AE010E944900812F61E0AE0108
S1130AC00E944900812F62E0AE010E944900812FFB
S1130AD063E0AE010E944900DF91CF911F91089518
S1130AE01F93CF93DF93182FC0E6D0E064E0AE01EC
S1130AF00E944900812F65E0AE010E944900812FC8
S1130B0066E0AE010E944900812F67E0AE010E94B9
S1130B104900DF91CF911F91089584E690E065E04C
S1130B2070E040E950E00E9449000E94310607E964
S1130B3010E0CAE00F2EF3EAEF2EF0E0FF2EF02DC6
S1130B4081E061E00E949106C8010E94820684E669
S1130B5065E00E94B5076C2F0E94A809D92F0E9456
S1130B60A809892F805D0E940F068D2F805D0E9449
S1130B700F06C7010E9482068FE59AEEA0E081501D
S1130B809040A040E1F700C00000DACF81E666E0C3
S1130B9047EA50E00E94160189EF90E00197F1F7CF
S1130BA000C0000081E666E04CEA50E00E941601B5
S1130BB089EF90E00197F1F700C0000008951F93BA
S1130BC0CF93DF93182FCCEAD0E081E667E0AE0143
S1130BD00E941601612F62956F7081E60E94EA04FB
S1130BE00E94C60581E667E0AE010E94160181E617
S1130BF0612F0E94EA040E94C6051150123038F495
S1130C0083EF91E00197F1F700C0000004C091E286
S1130C109A95F1F70000DF91CF911F9108951F93EA
S1130C20CF93DF93182FC7EAD0E081E667E0AE01E7
S1130C300E941601612F62956F7081E60E94EA049A
S1130C400E94C60581E667E0AE010E94160181E6B6
S1130C50612F0E94EA040E94C605DF91CF911F9183
S1130C600895CF93DF9381E60E945305C0EBD0E053
S1130C7081E667E0AE010E94490081E666E0AE01CC
S1130C800E9449008BE49DE10197F1F700C0000048
S1130C9082E00E94DF0583EC99E00197F1F700C040
S1130CA0000088E20E94DF0589EF90E00197F1F7E8
S1130CB000C000008EE00E94DF0589EF90E00197FC
S1130CC0F1F700C0000081E00E94DF0583EC99E0A9
S1130CD00197F1F700C0000086E00E94DF0589EF6C
S1130CE090E00197F1F700C00000DF91CF910895E3
S1130CF081E00E94DF0583EF91E00197F1F700C0E6
S1130D0000000895CF93DF93EC018881882331F0AC
S1130D1021960E940F0689918823D9F7DF91CF91FC
S1130D200895813029F4613150F4862F81580CC024
S1130D30823039F4613138F4862F815405C080E85B
S1130D4003C080E801C080E80E94DF05089583B7EE
S1130D50886083BF83B7816083BF83B7846083BFA8
S1130D60789489B7826089BF089583B7886083BF08
S1130D7083B78F7B83BF83B7816083BF83B784606E
S1130D8083BF83B78D7F83BF83B7806183BF83B7FE
S1130D908F7D83BFBB9A089583B7886083BF83B771
S1130DA0806483BF83B7816083BF83B78B7F83BF36
S1130DB083B78D7F83BF83B7806283BF83B78F7E02
S1130DC083BFBB9A08958CBF089583B7877F83BF81
S1130DD083B7806483BF83B7816083BF83B78B7F0E
S1130DE083BF83B78D7F83BF83B7806283BF83B79D
S1130DF08F7E83BFBB9A08958F929F92AF92BF92CA
S1130E00CF92DF92EF92FF920F931F93CF93DF93D2
S1130E108C018EB5887F8EBD0830110519F109301B
S1130E20110550F40630110569F10730110570F50C
S1130E300130110571F50CC081E000301807D1F0C4
S1130E4084E000301807D1F00034110511F50EC00C
S1130E508EB581608EBD8EB58D7F8EBD8EB58B7F38
S1130E608EBD17C08EB582608EBD13C08EB58360F3
S1130E708EBD0FC08EB584608EBD0BC08EB58560EF
S1130E808EBD07C08EB586608EBD03C08EB58760EB
S1130E908EBD88B7806288BF8EB580688EBD8EB5E2
S1130EA080648EBD08B605FEFDCF86B597B52EB518
S1130EB02F7B2EBD28B7206228BF08B605FEFDCFC4
S1130EC066B577B52EB520642EBD28B7206228BF3D
S1130ED008B605FEFDCFC6B4D7B428B7206228BF34
S1130EE01EBCC81AD90A681B790B80E090E00E94E6
S1130EF098084B015C01EE24FF24C701B6010E944F
S1130F0098089B01AC01C501B4010E94040820E0CB
S1130F1030E048EC52E40E9426090E946C08DC018F
S1130F20CB01D82FC92FB80180E090E0A70196012A
S1130F300E9489099B01AC0160E072E18AE790E0BC
S1130F400E94B40989019A01802F912F6D2F7C2F63
S1130F50DF91CF911F910F91FF90EF90DF90CF9091
S1130F60BF90AF909F908F900895CF93DF93D82F29
S1130F70C62F47EB50E00E94160180E18A95F1F7F5
S1130F8000C08D2F6C2F4CEB50E00E9416018EB5E3
S1130F90887F8EBD8EB58D7F8EBD8EB581608EBDF2
S1130FA08EB58B7F8EBD8EB580688EBD8EB5806408
S1130FB08EBD88B7806288BF08B605FEFDCF86B5B2
S1130FC097B52EB52F7B2EBD28B7206228BF08B653
S1130FD005FEFDCF66B577B51EBC28B7206228BFD5
S1130FE0681B790B80E090E028E237E840E050E0AD
S1130FF00E94890920E034E244EF50E00E94B409E1
S1131000822FDF91CF9108950CD0E6C0DED040F05E
S1131010D5D030F021F45F3F19F0C7C0511110C191
S1131020CAC0EBD098F39923C9F35523B1F3951BA8
S1131030550BBB27AA2762177307840738F09F5FF5
S11310405F4F220F331F441FAA1FA9F333D00E2E64
S11310503AF0E0E830D091505040E695001CCAF7D1
S113106029D0FE2F27D0660F771F881FBB1F261796
S113107037074807AB07B0E809F0BB0B802DBF0169
S1131080FF2793585F4F2AF09E3F510568F08DC0AB
S1131090D7C05F3FECF3983EDCF386957795679570
S11310A0B795F7959F5FC9F7880F911D969587951A
S11310B097F90895E1E0660F771F881FBB1F621739
S11310C073078407BA0720F0621B730B840BBA0BF7
S11310D0EE1F88F7E095089598D088F09F5790F018
S11310E0B92F9927B751A0F0D1F0660F771F881F49
S11310F0991F1AF0BA95C9F712C0B13081F09FD088
S1131100B1E008959CC0672F782F8827B85F39F025
S1131110B93FCCF3869577956795B395D9F73EF4A7
S113112090958095709561957F4F8F4F9F4F08954F
S1131130E89409C097FB3EF490958095709561956D
S11311407F4F8F4F9F4F9923A9F0F92F96E9BB2723
S11311509395F695879577956795B795F111F8CF9F
S1131160FAF4BB0F11F460FF1BC06F5F7F4F8F4F0A
S11311709F4F16C0882311F096E911C0772321F000
S11311809EE8872F762F05C0662371F096E8862F98
S113119070E060E02AF09A95660F771F881FDAF7EF
S11311A0880F9695879597F9089597F99F6780E832
S11311B070E060E008959FEF80EC089500240A94A5
S11311C01616170618060906089500240A9412161E
S11311D01306140605060895092E0394000C11F451
S11311E0882352F0BB0F40F4BF2B11F460FF04C0FE
S11311F06F5F7F4F8F4F9F4F089557FD9058440F57
S1131200551F59F05F3F71F04795880F97FB991F61
S113121061F09F3F79F0879508951216130614061E
S1131220551FF2CF4695F1DF08C0161617061806AB
S1131230991FF1CF86957105610508940895E89486
S1131240BB2766277727CB0197F908950BD0C4CF26
S1131250B5DF28F0BADF18F0952309F0A6CFABCF9D
S11312601124EECFCADFA0F3959FD1F3950F50E080
S1131270551F629FF001729FBB27F00DB11D639F44
S1131280AA27F00DB11DAA1F649F6627B00DA11DEA
S1131290661F829F2227B00DA11D621F739FB00D90
S11312A0A11D621F839FA00D611D221F749F332700
S11312B0A00D611D231F849F600D211D822F762F99
S11312C06A2F11249F5750408AF0E1F088234AF096
S11312D0EE0FFF1FBB1F661F771F881F91505040E2
S11312E0A9F79E3F510570F060CFAACF5F3FECF3A2
S11312F0983EDCF3869577956795B795F795E795CE
S11313009F5FC1F7FE2B880F911D9695879597F9DE
S11313100895629FD001739FF001829FE00DF11D3B
S1131320649FE00DF11D929FF00D839FF00D749F5B
S1131330F00D659FF00D9927729FB00DE11DF91F07
S1131340639FB00DE11DF91FBD01CF011124089564
S1131350991B79E004C0991F961708F0961B881F03
S11313607A95C9F780950895A1E21A2EAA1BBB1B92
S1131370FD010DC0AA1FBB1FEE1FFF1FA217B3075D
S1131380E407F50720F0A21BB30BE40BF50B661F73
S1131390771F881F991F1A9469F760957095809537
S11313A090959B01AC01BD01CF010895FB01DC01C7
S11313B08D91019080190110D9F3990B0895F89437
S10513C0FFCF59
S11313C24F5554505554006F757470757400494EDE
S11313D250555400696E7075740048494748006856
S11313E26967680031004C4F57006C6F770030001A
S11313F24F55545055540044495354414E4345208B
S11314023D2000636D200048494748004C4F570077
S11314124F55545055540048494748004C4F5700C3
S9030000FC
