:100000000C942A000C9447000C9447000C94470071
:100010000C9447000C9447000C9447000C94470044
:100020000C9447000C9447000C9447000C94470034
:100030000C9447000C9447000C9447000C94470024
:100040000C9447000C9447000C9447000C94470014
:100050000C94470011241FBECFE5D8E0DEBFCDBF12
:1000600010E0A0E6B0E0E8EFFDE002C005900D92E0
:10007000A63AB107D9F710E0A6EAB0E001C01D9298
:10008000A63AB107E1F70E94A2000C94FA060C947C
:100090000000379A3E983F98329A319830980895E8
:1000A00097B18F70907F982B97B9369A3699FECF7B
:1000B00084B190E045B1349A342F20E0822B932B09
:1000C0000895CF93DF93CDB7DEB72B970FB6F89493
:1000D000DEBF0FBECDBF9C0184E589838DE48A839A
:1000E00080E58B838AE38C83C90164E670E00E941B
:1000F000DD06605D6D83EAE0F0E0C901BF010E94AA
:10010000DD06282FCB01BF010E94DD06805D8E83B6
:10011000205D2F8380E288878FED898783E48A873B
:100120001B8680E060E00E94C706CE0101960E9417
:10013000B8062B960FB6F894DEBF0FBECDBFDF9189
:10014000CF9108950E9467060E94490081E660E011
:1001500040E650E00E94B80080E00E9450000E94FB
:10016000610087EA91E60197F1F700C00000F4CF43
:100170000F931F93CF93DF93C82FD62F8A01CA0105
:1001800066E670E00E94F106282F392F211531050F
:1001900059F0C8016DE670E00E94F106282F392F52
:1001A0002115310509F04BC0C43409F43CC0C534F5
:1001B00040F4C23401F1C33450F5C13409F0A0C099
:1001C0000EC0C236C1F0C33620F4C13609F098C063
:1001D00006C0C336E1F0C43609F092C024C04AB369
:1001E00021E030E0C90102C0880F991FDA95E2F7DB
:1001F000842B8ABB85C047B321E030E0C90102C02F
:10020000880F991FDA95E2F7842B87BB79C044B336
:1002100021E030E0C90102C0880F991FDA95E2F7AA
:10022000842B84BB6DC041B321E030E0C90102C022
:10023000880F991FDA95E2F7842B81BB61C0C80152
:1002400064E770E00E94F106282F392F211531054F
:1002500059F0C8016AE770E00E94F106282F392F93
:100260002115310509F04CC0C43409F43DC0C53432
:1002700040F4C234F9F0C33450F5C13409F040C041
:100280000CC0C236B9F0C33618F4C136C9F505C082
:10029000C336E9F0C436A1F527C04AB321E030E007
:1002A000C90102C0880F991FDA95E2F7809584236F
:1002B0008ABB26C047B321E030E0C90102C0880FE5
:1002C000991FDA95E2F78095842387BB19C044B360
:1002D00021E030E0C90102C0880F991FDA95E2F7EA
:1002E0008095842384BB0CC041B321E030E0C90178
:1002F00002C0880F991FDA95E2F78095842381BBAD
:10030000DF91CF911F910F9108950F931F93CF937A
:10031000DF93C82FD62F8A01CA0160E870E00E94DF
:10032000F106282F392F21153105A9F0C80165E8FC
:1003300070E00E94F106282F392F2115310559F060
:10034000C8016AE870E00E94F106282F392F2115B4
:10035000310509F04BC0C43409F43CC0C53440F445
:10036000C23401F1C33450F5C13409F0AAC00EC043
:10037000C236C1F0C33620F4C13609F0A2C006C0AF
:10038000C336E1F0C43609F09CC024C04BB321E071
:1003900030E0C90102C0880F991FDA95E2F7842B7B
:1003A0008BBB8FC048B321E030E0C90102C0880F89
:1003B000991FDA95E2F7842B88BB83C045B321E00F
:1003C00030E0C90102C0880F991FDA95E2F7842B4B
:1003D00085BB77C042B321E030E0C90102C0880F7D
:1003E000991FDA95E2F7842B82BB6BC0C8016CE8D9
:1003F00070E00E94F106282F392F21153105A9F050
:10040000C80160E970E00E94F106282F392F2115FC
:10041000310559F0C80164E970E00E94F106282F07
:10042000392F2115310509F04CC0C43409F43DC001
:10043000C53440F4C234F9F0C33450F5C13409F086
:1004400040C00CC0C236B9F0C33618F4C136C9F585
:1004500005C0C336E9F0C436A1F527C04BB321E08F
:1004600030E0C90102C0880F991FDA95E2F7809544
:1004700084238BBB26C048B321E030E0C90102C011
:10048000880F991FDA95E2F78095842388BB19C0FD
:1004900045B321E030E0C90102C0880F991FDA9509
:1004A000E2F78095842385BB0CC042B321E030E0A5
:1004B000C90102C0880F991FDA95E2F7809584235D
:1004C00082BBDF91CF911F910F910895843409F47D
:1004D0003DC0853440F48234F9F0833450F58134E2
:1004E00009F040C00CC08236B9F0833618F481366A
:1004F000C9F505C08336E9F08436A1F527C02BB3D2
:1005000081E090E0AC0102C0440F551F6A95E2F70C
:10051000BA0162276BBB089528B381E090E0AC017B
:1005200002C0440F551F6A95E2F7BA01622768BB03
:10053000089525B381E090E0AC0102C0440F551F3F
:100540006A95E2F7BA01622765BB089522B381E09C
:1005500090E0AC0102C0440F551F6A95E2F7BA0162
:10056000622762BB0895843409F44EC0853440F498
:10057000823431F18334B0F5813409F057C00EC0B4
:100580008236F1F0833620F4813609F04FC006C080
:10059000833641F1843609F049C036C029B381E081
:1005A00090E0062E02C0880F991F0A94E2F730E00F
:1005B0008223932302C0959587956A95E2F7089563
:1005C00026B381E090E0062E02C0880F991F0A949E
:1005D000E2F730E08223932302C0959587956A95D0
:1005E000E2F7089523B381E090E0062E02C0880F61
:1005F000991F0A94E2F730E08223932302C0959575
:1006000087956A95E2F7089520B381E090E0062E81
:1006100002C0880F991F0A94E2F730E082239323E7
:1006200002C0959587956A95E2F7089508950F930E
:100630001F93CF93C82F8B01CB0166E670E00E9419
:10064000F106282F392F2115310551F0C8016DE62B
:1006500070E00E94F106282F392F2115310531F560
:10066000C43409F1C53440F4C234B9F0C334C0F421
:10067000C13409F04DC00EC0C23679F0C33620F443
:10068000C13609F045C006C0C33651F0C43609F082
:100690003FC009C08FEF8ABB3BC08FEF87BB38C01C
:1006A0008FEF84BB35C08FEF81BB32C0C80164E7D8
:1006B00070E00E94F106282F392F2115310551F0E5
:1006C000C8016AE770E00E94F106282F392F211532
:1006D0003105F1F4C434D9F0C53438F4C23499F09A
:1006E000C33498F4C134A1F40CC0C23661F0C336EF
:1006F00018F4C13669F405C0C33639F0C43641F484
:1007000006C01ABA05C017BA03C014BA01C011BA9C
:10071000CF911F910F9108958434D9F0853438F426
:10072000823499F0833498F48134A1F40CC0823679
:1007300061F0833618F4813669F405C0833639F0E8
:10074000843641F406C06BBB089568BB089565BB51
:10075000089562BB08958434D9F0853438F4823426
:1007600099F0833498F48134A9F40CC0823661F096
:10077000833618F4813671F405C0833639F0843637
:1007800049F406C089B3089586B3089583B30895E4
:1007900080B308950895843409F1853438F482349F
:1007A000A9F08334B8F48134E1F40CC0823671F0DE
:1007B000833618F48136A9F405C0833659F084369F
:1007C00081F40CC08BB380958BBB089588B3809562
:1007D00088BB089585B3809585BB089582B38095C5
:1007E00082BB0895843409F471C0853448F482349E
:1007F00099F1833408F04DC0813409F083C00FC0F3
:10080000823651F1833620F4813609F07BC007C06F
:10081000833609F43EC0843609F074C057C04130B5
:1008200069F42BB381E090E0AC0102C0440F551F86
:100830006A95E2F7BA01622B6BBB08952BB381E096
:1008400090E0AC0102C0440F551F6A95E2F7BA016F
:10085000609562236BBB0895413069F428B381E051
:1008600090E0AC0102C0440F551F6A95E2F7BA014F
:10087000622B68BB089528B381E090E0AC0102C010
:10088000440F551F6A95E2F7BA016095622368BB71
:100890000895413069F425B381E090E0AC0102C0D5
:1008A000440F551F6A95E2F7BA01622B65BB0895A4
:1008B00025B381E090E0AC0102C0440F551F6A955A
:1008C000E2F7BA016095622365BB0895413069F48F
:1008D00022B381E090E0AC0102C0440F551F6A953D
:1008E000E2F7BA01622B62BB089522B381E090E087
:1008F000AC0102C0440F551F6A95E2F7BA0160953A
:10090000622362BB0895EF92FF921F93CF93DF9310
:1009100000D000D0CDB7DEB7182F84E990E09A83DD
:1009200089838AE890E09C838B83E62EFF24F7017D
:10093000E170F070EE0FFF1F81E090E08C0F9D1FC3
:10094000E80FF91F40815181812F60E00E948501ED
:10095000F701E270F07081E090E08C0F9D1FE80FCE
:10096000F91F40815181812F61E00E948501F701CB
:10097000E470F070F595E795F595E795EE0FFF1F9C
:1009800081E090E08C0F9D1FE80FF91F408151819D
:10099000812F62E00E94850198E0E922FF24F7019F
:1009A000F595E795F595E795F595E795EE0FFF1F1A
:1009B00081E090E08C0F9D1FE80FF91F408151816D
:1009C000812F63E00E9485010F900F900F900F9090
:1009D000DF91CF911F91FF90EF900895EF92FF92DA
:1009E0001F93CF93DF9300D000D0CDB7DEB7182F81
:1009F00084E990E09A8389838AE890E09C838B83E2
:100A0000E62EFF24F701E170F070EE0FFF1F81E08A
:100A100090E08C0F9D1FE80FF91F40815181812FBD
:100A200064E00E948501F701E270F07081E090E0DF
:100A30008C0F9D1FE80FF91F40815181812F65E0C8
:100A40000E948501F701E470F070F595E795F59542
:100A5000E795EE0FFF1F81E090E08C0F9D1FE80FE0
:100A6000F91F40815181812F66E00E94850198E045
:100A7000E922FF24F701F595E795F595E795F595BA
:100A8000E795EE0FFF1F81E090E08C0F9D1FE80FB0
:100A9000F91F40815181812F67E00E9485010F90ED
:100AA0000F900F900F90DF91CF911F91FF90EF90DB
:100AB00008956F70843451F1853438F48234C1F074
:100AC0008334E8F4813441F50CC0823689F08336F2
:100AD00018F4813609F505C0833689F08436E1F4CF
:100AE00015C08BB3807F8BBB8BB3682B6BBB08951A
:100AF00088B3807F88BB88B3682B68BB089585B3B3
:100B0000807F85BB85B3682B65BB089582B3807FEA
:100B100082BB82B3682B62BB08956295607F843488
:100B200051F1853438F48234C1F08334E8F48134EF
:100B300041F50CC0823689F0833618F4813609F508
:100B400005C0833689F08436E1F415C08BB3807F0D
:100B50008BBB8BB3682B6BBB089588B3807F88BB3E
:100B600088B3682B68BB089585B3807F85BB85B348
:100B7000682B65BB089582B3807F82BB82B3682BEC
:100B800062BB08951F93CF93DF93182FC6E6D0E082
:100B900060E0AE010E94B800812F61E0AE010E94CA
:100BA000B800812F62E0AE010E94B800812F63E09F
:100BB000AE010E94B800DF91CF911F9108951F935D
:100BC000CF93DF93182FC6E6D0E064E0AE010E9419
:100BD000B800812F65E0AE010E94B800812F66E069
:100BE000AE010E94B800812F67E0AE010E94B800FC
:100BF000DF91CF911F91089582E460E046E950E0D3
:100C00000E94850189EF90E00197F1F700C0000094
:100C100082E460E04BE950E00E94850189EF90E0BA
:100C20000197F1F700C0000008951F93CF93DF9361
:100C3000182FCBE9D0E082E461E0AE010E9485018B
:100C4000612F62956F7083E60E9459050E94FC0532
:100C500082E461E0AE010E94850183E6612F0E947B
:100C600059050E94FC051150123038F483EF91E0D1
:100C70000197F1F700C0000004C091E29A95F1F7E6
:100C80000000DF91CF911F9108951F93CF93DF93C1
:100C9000182FC6E9D0E082E461E0AE010E94850130
:100CA000612F62956F7083E60E9459050E94FC05D2
:100CB00082E461E0AE010E94850183E6612F0E941B
:100CC00059050E94FC05DF91CF911F910895CF93A4
:100CD000DF9383E60E94C205CFE9D0E082E461E0C1
:100CE000AE010E94B80082E460E0AE010E94B8004C
:100CF0008BE49DE10197F1F700C0000082E00E94C3
:100D0000150683EC99E00197F1F700C0000088E236
:100D10000E94150689EF90E00197F1F700C00000EE
:100D20008EE00E94150689EF90E00197F1F700C070
:100D3000000081E00E94150683EC99E00197F1F72D
:100D400000C0000086E00E94150689EF90E0019740
:100D5000F1F700C00000DF91CF91089581E00E947B
:100D6000150683EF91E00197F1F700C000000895A8
:100D7000CF93DF93EC018881882331F021960E9484
:100D8000450689918823D9F7DF91CF910895813065
:100D900029F4613150F4862F81580CC0823039F427
:100DA000613138F4862F815405C080E803C080E8A3
:100DB00001C080E80E9415060895AA1BBB1B51E1E3
:100DC00007C0AA1FBB1FA617B70710F0A61BB70BBB
:100DD000881F991F5A95A9F780959095BC01CD0160
:100DE0000895FB01DC018D91019080190110D9F368
:080DF000990B0895F894FFCF60
:100DF800494E505554004F5554505554006F757412
:100E080070757400494E50555400696E70757400C1
:100E18004849474800686967680031004C4F5700E7
:100E28006C6F7700300048494748004C4F57004FD7
:060E380055545055540012
:00000001FF
