:100000000C942A000C9447000C9447000C94470071
:100010000C9447000C94E3080C9447000C944700A0
:100020000C9447000C9447000C9447000C94F4087F
:100030000C9447000C9447000C9447000C94470024
:100040000C9447000C9447000C9447000C94470014
:100050000C94470011241FBECFE5D8E0DEBFCDBF12
:1000600011E0A0E6B0E0EEE9F6E102C005900D92E5
:10007000A634B107D9F711E0A6E4B1E001C01D92A2
:10008000AB34B107E1F70E943B090C944D0B0C9483
:1000900000000F931F93CF93DF93C82FD62F8A01B1
:1000A000CA0160E670E00E94440B282F392F211509
:1000B000310559F0C80167E670E00E94440B282F13
:1000C000392F2115310509F04BC0C43409F43CC067
:1000D000C53440F4C23401F1C33450F5C13409F0E1
:1000E000A0C00EC0C236C1F0C33620F4C13609F03C
:1000F00098C006C0C336E1F0C43609F092C024C0EF
:100100004AB321E030E0C90102C0880F991FDA9597
:10011000E2F7842B8ABB85C047B321E030E0C901F8
:1001200002C0880F991FDA95E2F7842B87BB79C04C
:1001300044B321E030E0C90102C0880F991FDA956D
:10014000E2F7842B84BB6DC041B321E030E0C901EC
:1001500002C0880F991FDA95E2F7842B81BB61C03A
:10016000C8016EE670E00E94440B282F392F21153C
:10017000310559F0C80164E770E00E94440B282F54
:10018000392F2115310509F04CC0C43409F43DC0A4
:10019000C53440F4C234F9F0C33450F5C13409F029
:1001A00040C00CC0C236B9F0C33618F4C136C9F528
:1001B00005C0C336E9F0C436A1F527C04AB321E033
:1001C00030E0C90102C0880F991FDA95E2F78095E7
:1001D00084238ABB26C047B321E030E0C90102C0B6
:1001E000880F991FDA95E2F78095842387BB19C0A1
:1001F00044B321E030E0C90102C0880F991FDA95AD
:10020000E2F78095842384BB0CC041B321E030E049
:10021000C90102C0880F991FDA95E2F780958423FF
:1002200081BBDF91CF911F910F9108950F931F9381
:10023000CF93DF93C82FD62F8A01CA016AE770E0F7
:100240000E94440B282F392F21153105A9F0C80130
:100250006FE770E00E94440B282F392F21153105DC
:1002600059F0C80164E870E00E94440B282F392F30
:100270002115310509F04BC0C43409F43CC0C53424
:1002800040F4C23401F1C33450F5C13409F0AAC0BE
:100290000EC0C236C1F0C33620F4C13609F0A2C088
:1002A00006C0C336E1F0C43609F09CC024C04BB38D
:1002B00021E030E0C90102C0880F991FDA95E2F70A
:1002C000842B8BBB8FC048B321E030E0C90102C052
:1002D000880F991FDA95E2F7842B88BB83C045B35A
:1002E00021E030E0C90102C0880F991FDA95E2F7DA
:1002F000842B85BB77C042B321E030E0C90102C046
:10030000880F991FDA95E2F7842B82BB6BC0C80176
:1003100066E870E00E94440B282F392F2115310523
:10032000A9F0C8016AE870E00E94440B282F392F19
:100330002115310559F0C8016EE870E00E94440BA8
:10034000282F392F2115310509F04CC0C43409F488
:100350003DC0C53440F4C234F9F0C33450F5C13463
:1003600009F040C00CC0C236B9F0C33618F4C1362B
:10037000C9F505C0C336E9F0C436A1F527C04BB3B3
:1003800021E030E0C90102C0880F991FDA95E2F739
:10039000809584238BBB26C048B321E030E0C9019F
:1003A00002C0880F991FDA95E2F78095842388BBF5
:1003B00019C045B321E030E0C90102C0880F991F80
:1003C000DA95E2F78095842385BB0CC042B321E027
:1003D00030E0C90102C0880F991FDA95E2F78095D5
:1003E000842382BBDF91CF911F910F9108958434B4
:1003F00009F43DC0853440F48234F9F0833450F57B
:10040000813409F040C00CC08236B9F0833618F44C
:100410008136C9F505C08336E9F08436A1F527C0D9
:100420002BB381E090E0AC0102C0440F551F6A95E8
:10043000E2F7BA0162276BBB089528B381E090E030
:10044000AC0102C0440F551F6A95E2F7BA0162275A
:1004500068BB089525B381E090E0AC0102C0440F71
:10046000551F6A95E2F7BA01622765BB089522B36A
:1004700081E090E0AC0102C0440F551F6A95E2F79D
:10048000BA01622762BB0895843409F44EC08534F2
:1004900040F4823431F18334B0F5813409F057C02F
:1004A0000EC08236F1F0833620F4813609F04FC059
:1004B00006C0833641F1843609F049C036C029B3FD
:1004C00081E090E0062E02C0880F991F0A94E2F79F
:1004D00030E08223932302C0959587956A95E2F7D1
:1004E000089526B381E090E0062E02C0880F991F80
:1004F0000A94E2F730E08223932302C09595879512
:100500006A95E2F7089523B381E090E0062E02C0D9
:10051000880F991F0A94E2F730E08223932302C0E8
:10052000959587956A95E2F7089520B381E090E06C
:10053000062E02C0880F991F0A94E2F730E082234A
:10054000932302C0959587956A95E2F708950895DB
:100550000F931F93CF93C82F8B01CB0160E670E000
:100560000E94440B282F392F2115310551F0C80165
:1005700067E670E00E94440B282F392F21153105C2
:1005800031F5C43409F1C53440F4C234B9F0C33490
:10059000C0F4C13409F04DC00EC0C23679F0C33684
:1005A00020F4C13609F045C006C0C33651F0C43648
:1005B00009F03FC009C08FEF8ABB3BC08FEF87BBFC
:1005C00038C08FEF84BB35C08FEF81BB32C0C8010C
:1005D0006EE670E00E94440B282F392F211531055B
:1005E00051F0C80164E770E00E94440B282F392FB6
:1005F00021153105F1F4C434D9F0C53438F4C234CE
:1006000099F0C33498F4C134A1F40CC0C23661F03F
:10061000C33618F4C13669F405C0C33639F0C436A0
:1006200041F406C01ABA05C017BA03C014BA01C013
:1006300011BACF911F910F9108958434D9F0853468
:1006400038F4823499F0833498F48134A1F40CC0E6
:10065000823661F0833618F4813669F405C083363A
:1006600039F0843641F406C06BBB089568BB089529
:1006700065BB089562BB08958434D9F0853438F49D
:10068000823499F0833498F48134A9F40CC0823612
:1006900061F0833618F4813671F405C0833639F081
:1006A000843649F406C089B3089586B3089583B3A8
:1006B000089580B308950895843409F1853438F499
:1006C0008234A9F08334B8F48134E1F40CC082366A
:1006D00071F0833618F48136A9F405C0833659F0D9
:1006E000843681F40CC08BB380958BBB089588B39E
:1006F000809588BB089585B3809585BB089582B3A6
:10070000809582BB0895843409F471C0853448F41F
:10071000823499F1833408F04DC0813409F083C0EC
:100720000FC0823651F1833620F4813609F07BC048
:1007300007C0833609F43EC0843609F074C057C040
:10074000413069F42BB381E090E0AC0102C0440F6A
:10075000551F6A95E2F7BA01622B6BBB08952BB364
:1007600081E090E0AC0102C0440F551F6A95E2F7AA
:10077000BA01609562236BBB0895413069F428B3D8
:1007800081E090E0AC0102C0440F551F6A95E2F78A
:10079000BA01622B68BB089528B381E090E0AC01F8
:1007A00002C0440F551F6A95E2F7BA0160956223B3
:1007B00068BB0895413069F425B381E090E0AC0155
:1007C00002C0440F551F6A95E2F7BA01622B65BB60
:1007D000089525B381E090E0AC0102C0440F551F9D
:1007E0006A95E2F7BA016095622365BB08954130CE
:1007F00069F422B381E090E0AC0102C0440F551FC0
:100800006A95E2F7BA01622B62BB089522B381E0D8
:1008100090E0AC0102C0440F551F6A95E2F7BA019F
:100820006095622362BB0895EF92FF921F93CF936E
:10083000DF9300D000D0CDB7DEB7182F8EE890E060
:100840009A83898384E890E09C838B83E62EFF243F
:10085000F701E170F070EE0FFF1F81E090E08C0F68
:100860009D1FE80FF91F40815181812F60E00E9498
:100870001601F701E270F07081E090E08C0F9D1F8F
:10088000E80FF91F40815181812F61E00E9416011C
:10089000F701E470F070F595E795F595E795EE0FA3
:1008A000FF1F81E090E08C0F9D1FE80FF91F408132
:1008B0005181812F62E00E94160198E0E922FF2415
:1008C000F701F595E795F595E795F595E795EE0F21
:1008D000FF1F81E090E08C0F9D1FE80FF91F408102
:1008E0005181812F63E00E9416010F900F900F90AD
:1008F0000F90DF91CF911F91FF90EF900895EF92AD
:10090000FF921F93CF93DF9300D000D0CDB7DEB717
:10091000182F8EE890E09A83898384E890E09C8386
:100920008B83E62EFF24F701E170F070EE0FFF1FBE
:1009300081E090E08C0F9D1FE80FF91F40815181ED
:10094000812F64E00E941601F701E270F07081E0EF
:1009500090E08C0F9D1FE80FF91F40815181812F7E
:1009600065E00E941601F701E470F070F595E795D7
:10097000F595E795EE0FFF1F81E090E08C0F9D1F2E
:10098000E80FF91F40815181812F66E00E94160116
:1009900098E0E922FF24F701F595E795F595E795AD
:1009A000F595E795EE0FFF1F81E090E08C0F9D1FFE
:1009B000E80FF91F40815181812F67E00E941601E5
:1009C0000F900F900F900F90DF91CF911F91FF909C
:1009D000EF9008956F70843451F1853438F4823487
:1009E000C1F08334E8F4813441F50CC0823689F0DB
:1009F000833618F4813609F505C0833689F08436CC
:100A0000E1F415C08BB3807F8BBB8BB3682B6BBBC2
:100A1000089588B3807F88BB88B3682B68BB08952E
:100A200085B3807F85BB85B3682B65BB089582B392
:100A3000807F82BB82B3682B62BB08956295607F22
:100A4000843451F1853438F48234C1F08334E8F4CD
:100A5000813441F50CC0823689F0833618F4813632
:100A600009F505C0833689F08436E1F415C08BB3EF
:100A7000807F8BBB8BB3682B6BBB089588B3807F63
:100A800088BB88B3682B68BB089585B3807F85BB1E
:100A900085B3682B65BB089582B3807F82BB82B328
:100AA000682B62BB08951F93CF93DF93182FC0E686
:100AB000D0E060E0AE010E944900812F61E0AE010C
:100AC0000E944900812F62E0AE010E944900812FFF
:100AD00063E0AE010E944900DF91CF911F9108951C
:100AE0001F93CF93DF93182FC0E6D0E064E0AE01F0
:100AF0000E944900812F65E0AE010E944900812FCC
:100B000066E0AE010E944900812F67E0AE010E94BD
:100B10004900DF91CF911F9108950F931F93CF93B9
:100B2000C82F00E910E060E0A8010E9449008C2F66
:100B300061E0A8010E9449008C2F62E0A8010E9498
:100B400049008C2F63E0A8010E94490007E910E0EA
:100B50008C2F64E0A8010E9449008C2F65E0A80159
:100B60000E9449008C2F66E0A8010E9449008C2F4A
:100B700067E0A8010E9449008C2F64E041E00E94D8
:100B800083038C2F65E041E00E9483038C2F66E095
:100B900041E00E9483038C2F67E041E00E948303C1
:100BA000CF911F910F910895CF93DF9384E660E07A
:100BB0004EE950E00E941601C2EAD0E084E661E00E
:100BC000AE010E94160184E662E0AE010E941601A9
:100BD00084E663E0AE010E94160183EC99E0019780
:100BE000F1F700C00000849B71C0859B71C0869B9B
:100BF00071C0879B71C084E660E0AE010E9416015F
:100C000084E661E04EE950E00E94160184E662E06D
:100C1000AE010E94160184E663E0AE010E94160157
:100C200083EC99E00197F1F700C00000849B56C067
:100C3000859B56C0869B56C0879B56C084E660E065
:100C4000AE010E94160184E661E0AE010E94160129
:100C500084E662E04EE950E00E94160184E663E01B
:100C6000AE010E94160183EC99E00197F1F700C0F4
:100C70000000849B3BC0859B3BC0869B3BC0879B01
:100C80003BC084E660E0AE010E94160184E661E0AC
:100C9000AE010E94160184E662E0AE010E941601D8
:100CA00084E663E04EE950E00E94160183EC99E08F
:100CB0000197F1F700C00000849B20C0859B20C0F5
:100CC000869B20C0879920C084E41FC087E31DC095
:100CD00088E31BC089E319C081E417C084E315C011
:100CE00085E313C086E311C082E40FC081E30DC029
:100CF00082E30BC083E309C083E407C08AE205C036
:100D000080E303C083E201C080E0DF91CF910895CA
:100D10006F927F928F929F92BF92CF92DF92EF92CB
:100D2000FF920F931F93CF93DF93CDB7DEB76097FA
:100D30000FB6F894DEBF0FBECDBFDE011196E7EA15
:100D4000F0E080E101900D928150E1F700E0BB24DA
:100D50000F2EF2EACF2EF0E0DF2EF02D0F2EFEE95F
:100D60008F2EF0E09F2EF02D66247724EE24FF24B2
:100D7000E39458C084E6612FA6010E9416011F5F0C
:100D80001430C1F784E6602FA4010E94160193017C
:100D900080B3F901B9016C5F7F4FA701062E02C035
:100DA000440F551F0A94E2F790E084239523062E02
:100DB00002C0959587950A94E2F7009751F587E868
:100DC00093E10197F1F700C0000080B390E0842325
:100DD0009523062E02C0959587950A94E2F7009711
:100DE000C1F480B390E084239523062E02C095952C
:100DF00087950A94E2F70097A1F3802F90E0880F7F
:100E0000991F880F991FE80FF91FEC0FFD1F8181B3
:100E10000CC02F5F3F4F2430310509F0B9CF0F5F71
:100E2000043011F01B2DA6CF8FEF60960FB6F8940B
:100E3000DEBF0FBECDBFDF91CF911F910F91FF900D
:100E4000EF90DF90CF90BF909F908F907F906F90AA
:100E5000089581E466E047EB50E00E94160189EFB7
:100E600090E00197F1F700C0000081E466E04CEBF0
:100E700050E00E94160189EF90E00197F1F700C061
:100E8000000008951F93CF93DF93182FCCEBD0E091
:100E900081E467E0AE010E941601612F62956F70D8
:100EA00081E40E94EA040E94290781E467E0AE0120
:100EB0000E94160181E4612F0E94EA040E94290722
:100EC0001150123038F483EF91E00197F1F700C030
:100ED000000004C091E29A95F1F70000DF91CF91F4
:100EE0001F9108951F93CF93DF93182FC7EBD0E086
:100EF00081E467E0AE010E941601612F62956F7078
:100F000081E40E94EA040E94290781E467E0AE01BF
:100F10000E94160181E4612F0E94EA040E942907C1
:100F2000DF91CF911F910895CF93DF9381E40E94C9
:100F30005305C0ECD0E081E467E0AE010E944900B7
:100F400081E466E0AE010E9449008BE49DE10197D7
:100F5000F1F700C0000082E00E94420783EC99E0B4
:100F60000197F1F700C0000088E20E94420789EF74
:100F700090E00197F1F700C000008EE00E94420768
:100F800089EF90E00197F1F700C0000081E00E9436
:100F9000420783EC99E00197F1F700C0000086E07A
:100FA0000E94420789EF90E00197F1F700C000002E
:100FB000DF91CF91089581E00E94420783EF91E095
:100FC0000197F1F700C000000895CF93DF93EC0183
:100FD0008881882331F021960E94720789918823A5
:100FE000D9F7DF91CF910895813029F4613150F420
:100FF000862F81580CC0823039F4613138F4862F45
:10100000815405C080E803C080E801C080E80E94E8
:1010100042070895CF93DF93F8940E94DB0781E0A5
:1010200061E00E94F40787EC90E00E94E5078FEFF3
:1010300094E3ACE081509040A040E1F700C0000094
:101040000E948806D82FD053DA30D0F70E9472075A
:101050008FEF91EEA4E081509040A040E1F700C0F6
:1010600000000E948806C82FC053CA30D0F70E94E3
:1010700072078FEF91EEA4E081509040A040E1F71D
:1010800000C00000DD0F8D2F880F880FD80FCD0F07
:10109000C093480180914801883110F010924801B6
:1010A0000E94DB0781E061E00E94F40780ED90E0A0
:1010B0000E94E5070E948806D82FD053DA30D0F777
:1010C0000E9472078FEF91EEA4E081509040A04003
:1010D000E1F700C000000E948806C82FC053CA3044
:1010E000D0F70E9472078FEF91EEA4E081509040FC
:1010F000A040E1F700C00000DD0F8D2F880F880FA2
:10110000D80FCD0FC0934701809147018C3310F069
:10111000109247010E94DB0781E061E00E94F40722
:101120008BED90E00E94E5070E948806D82FD053EF
:10113000DA30D0F70E9472078FEF91EEA4E0815071
:101140009040A040E1F700C000000E948806C82F30
:10115000C053CA30D0F70E9472078FEF91EEA4E01F
:1011600081509040A040E1F700C00000DD0F8D2FBE
:10117000880F880FD80FCD0FC0934A0180914A0184
:101180008C3310F010924A010E94DB0781E061E08D
:101190000E94F40786EE90E00E94E5078FEF99E643
:1011A000A8E181509040A040E1F700C00000789491
:1011B00081E061E00E94F40783EF90E00E94E50780
:1011C000DF91CF9108951F920F920FB60F921124C5
:1011D0008F9380914A018F5F80934A018F910F9086
:1011E0000FBE0F901F9018951F920F920FB60F927F
:1011F00011248F93809149018F5F809349018091E1
:101200004901863010F0109249018F910F900FBE66
:101210000F901F90189595B39F6395BB95B321E0F0
:1012200030E002C0220F331F8A95E2F72095922307
:1012300095BB089580914A018093460180914601B3
:101240008C3339F4809147018F5F8093470110926E
:101250004A01809147018C3339F410924701809103
:1012600048018F5F8093480180914801883111F4D3
:101270001092480108950E94210B0E94B50AC0E017
:10128000D0E008E011E083E690E0BE01A8010E94F2
:1012900049002196C630D105B1F782E60E94F309D4
:1012A00084E60E948D050E94940781E061E00E941F
:1012B000F40783EF90E00E94E5070FE011E00F2EA6
:1012C000F3EFEF2EF0E0FF2EF02DCAE00E941A0996
:1012D0000E948806813319F40E940A081FC00E94E8
:1012E00088068F3FD9F00E94DB0781E061E00E9411
:1012F000F407C8010E94E5078FEF94E3ACE081504A
:101300009040A040E1F700C000000E94DB0781E0B0
:1013100061E00E94F407C7010E94E507809149013E
:10132000823051F1833030F4882361F0813009F04C
:1013300057C015C08430D1F1843058F1853009F0A0
:101340004FC041C080E00E940B09809148016C2F82
:101350000E94380B682F82E60E94F809B7CF81E01F
:101360000E940B09809148016C2F0E94380B82E685
:10137000692F0E94F809AACF82E00E940B09809190
:1013800047016C2F0E94380B682F82E60E94F809F3
:101390009DCF83E00E940B09809147016C2F0E9432
:1013A000380B82E6692F0E94F80990CF84E00E94F2
:1013B0000B09809146016C2F0E94380B682F82E642
:1013C0000E94F80983CF85E00E940B0980914601B5
:1013D0006C2F0E94380B82E6692F0E94F80976CFA5
:1013E0001092490173CF6CE171E00E94A802089548
:1013F000CF93DF93CDB7DEB72A970FB6F894DEBF51
:101400000FBECDBFDE011196E3E2F1E09AE001905C
:101410000D929150E1F7FE01E60FF11D61810E94EE
:101420001D032A960FB6F894DEBF0FBECDBFDF9125
:10143000CF9108951F93CF93DF93182FEB01CB012A
:101440006DE271E00E94440B282F392F21153105E0
:1014500051F0CE0161E371E00E94440B282F392F37
:1014600021153105B9F4C5E3D1E0812F60E0AE016B
:101470000E944900812F61E0AE010E944900812F46
:1014800062E0AE010E944900812F63E0AE010E943C
:1014900049002AC0CE016CE371E00E94440B282F62
:1014A000392F2115310551F0CE0161E471E00E9420
:1014B000440B282F392F21153105B1F4C5E3D1E0B4
:1014C000812F64E0AE010E944900812F65E0AE01EA
:1014D0000E944900812F66E0AE010E944900812FE1
:1014E00067E0AE010E944900DF91CF911F910895FE
:1014F0000F931F93CF93DF93182F062FEA01CA0192
:101500006DE271E00E94440B282F392F211531051F
:1015100051F0CE0161E371E00E94440B282F392F76
:101520002115310529F4812F602F0E94EA0418C08B
:10153000CE016CE371E00E94440B282F392F211556
:10154000310551F0CE0161E471E00E94440B282F77
:10155000392F2115310521F4812F602F0E941E059E
:10156000DF91CF911F910F91089583B7877F83BF3C
:1015700083B78F7B83BF83B7816083BF83B782606C
:1015800083BF83B78B7F83BF89B7816089BF78941E
:10159000089583B7886083BF83B78E7F83BF83B787
:1015A000846083BF83B78D7F83BF789489B782605F
:1015B00089BF089583B7886083BF83B78F7B83BF5C
:1015C00083B7816083BF83B7846083BF83B78D7F18
:1015D00083BF83B7806183BF83B78F7D83BFBB9A8F
:1015E000089583B7886083BF83B7806483BF83B760
:1015F000816083BF83B78B7F83BF83B78D7F83BFBA
:1016000083B7806283BF83B78F7E83BFBB9A089501
:101610008CBF089583B7877F83BF83B7806483BF00
:1016200083B7816083BF83B78B7F83BF83B78D7F91
:1016300083BF83B7806283BF83B78F7E83BFBB9A2C
:10164000089585B58F7B85BD85B5877F85BD85B5BB
:10165000846085BD85B58D7F85BD85B5816085BD7F
:1016600082B5886082BD89B7806489BF7894089507
:10167000991B79E004C0991F961708F0961B881FE4
:101680007A95C9F780950895FB01DC018D91019051
:0E16900080190110D9F3990B0895F894FFCF3B
:10169E004F5554505554006F757470757400494E03
:1016AE0050555400696E707574004849474800687B
:1016BE006967680031004C4F57006C6F770030003F
:1016CE004F555450555400494E54505554004C4F9C
:1016DE00570048494748003738392F3435362A31B4
:1016EE0032332D41303D2B48494748004C4F57006F
:1016FE004F555450555400486F757273203D20005D
:10170E004D696E75746573203D20005365636F6E71
:10171E006473203D200054696D65205570646174BA
:10172E006564005072657373203120746F204564B8
:10173E0069742074696D65004F55545055540057A7
:10174E00726F6E672063686F696365006F75747082
:10175E007574003F065B4F666D7D477F6F4C4F572C
:10176E00006C6F77004F5554505554004849474808
:06177E00006869676800C5
:00000001FF
