S00D000073746172742E73726563E9
S11300000C942A000C9447000C9447000C9447006D
S11300100C9447000C9447000C9447000C94470040
S11300200C9447000C9447000C9447000C94470030
S11300300C9447000C9447000C9447000C94470020
S11300400C9447000C9447000C9447000C94470010
S11300500C94470011241FBECFE5D8E0DEBFCDBF0E
S113006010E0A0E6B0E0E4EAF6E002C005900D92EC
S1130070AC39B107D9F710E0ACE9B0E001C01D928A
S1130080AC39B107E1F70E9428030C9450030C9497
S1130090000040E650E00E945800089547E650E012
S11300A00E94250108954CE650E00E942501089520
S11300B00F931F93CF93DF93C82FD62F8A01CA01C2
S11300C060E770E00E944703282F392F211531057E
S11300D059F0C80167E770E00E944703282F392FC1
S11300E02115310509F04BC0C43409F43CC0C534B2
S11300F040F4C23401F1C33450F5C13409F0A0C056
S11301000EC0C236C1F0C33620F4C13609F098C01F
S113011006C0C336E1F0C43609F092C024C04AB325
S113012021E030E0C90102C0880F991FDA95E2F797
S1130130842B8ABB85C047B321E030E0C90102C0EB
S1130140880F991FDA95E2F7842B87BB79C044B3F3
S113015021E030E0C90102C0880F991FDA95E2F767
S1130160842B84BB6DC041B321E030E0C90102C0DF
S1130170880F991FDA95E2F7842B81BB61C0C8010F
S11301806EE770E00E944703282F392F21153105AF
S113019059F0C80164E870E00E944703282F392F02
S11301A02115310509F04CC0C43409F43DC0C534EF
S11301B040F4C234F9F0C33450F5C13409F040C0FE
S11301C00CC0C236B9F0C33618F4C136C9F505C03F
S11301D0C336E9F0C436A1F527C04AB321E030E0C4
S11301E0C90102C0880F991FDA95E2F7809584232C
S11301F08ABB26C047B321E030E0C90102C0880FA2
S1130200991FDA95E2F78095842387BB19C044B31C
S113021021E030E0C90102C0880F991FDA95E2F7A6
S11302208095842384BB0CC041B321E030E0C90134
S113023002C0880F991FDA95E2F78095842381BB69
S1130240DF91CF911F910F9108950F931F93CF9337
S1130250DF93C82FD62F8A01CA016AE870E00E9492
S11302604703282F392F2115310559F0C8016FE8AC
S113027070E00E944703282F392F2115310509F01A
S11302804BC0C43409F43CC0C53440F4C23401F159
S1130290C33450F5C13409F0A0C00EC0C236C1F059
S11302A0C33620F4C13609F098C006C0C336E1F065
S11302B0C43609F092C024C04BB321E030E0C90138
S11302C002C0880F991FDA95E2F7842B8BBB85C097
S11302D048B321E030E0C90102C0880F991FDA95C4
S11302E0E2F7842B88BB79C045B321E030E0C90133
S11302F002C0880F991FDA95E2F7842B85BB6DC085
S113030042B321E030E0C90102C0880F991FDA9599
S1130310E2F7842B82BB61C0C80164E970E00E94EB
S11303204703282F392F2115310559F0C80168E9F1
S113033070E00E944703282F392F2115310509F059
S11303404CC0C43409F43DC0C53440F4C234F9F09F
S1130350C33450F5C13409F040C00CC0C236B9F002
S1130360C33618F4C136C9F505C0C336E9F0C4363E
S1130370A1F527C04BB321E030E0C90102C0880FCA
S1130380991FDA95E2F7809584238BBB26C048B386
S113039021E030E0C90102C0880F991FDA95E2F725
S11303A08095842388BB19C045B321E030E0C9019E
S11303B002C0880F991FDA95E2F78095842385BBE4
S11303C00CC042B321E030E0C90102C0880F991F7C
S11303D0DA95E2F78095842382BBDF91CF911F9158
S11303E00F910895843409F43DC0853440F4823477
S11303F0F9F0833450F5813409F040C00CC08236E2
S1130400B9F0833618F48136C9F505C08336E9F0AE
S11304108436A1F527C02BB381E090E0AC0102C083
S1130420440F551F6A95E2F7BA0162276BBB089522
S113043028B381E090E0AC0102C0440F551F6A95D7
S1130440E2F7BA01622768BB089525B381E090E022
S1130450AC0102C0440F551F6A95E2F7BA01622746
S113046065BB089522B381E090E0AC0102C0440F63
S1130470551F6A95E2F7BA01622762BB0895843476
S113048009F44EC0853440F4823431F18334B0F53C
S1130490813409F057C00EC08236F1F0833620F45F
S11304A0813609F04FC006C0833641F1843609F025
S11304B049C036C029B381E090E0062E02C0880FFF
S11304C0991F0A94E2F730E08223932302C09595A2
S11304D087956A95E2F7089526B381E090E0062EA9
S11304E002C0880F991F0A94E2F730E08223932315
S11304F002C0959587956A95E2F7089523B381E044
S113050090E0062E02C0880F991F0A94E2F730E0AB
S11305108223932302C0959587956A95E2F70895FF
S113052020B381E090E0062E02C0880F991F0A9440
S1130530E2F730E08223932302C0959587956A956C
S1130540E2F7089508958434D9F0853438F4823478
S113055099F0833498F48134A1F40CC0823661F0AC
S1130560833618F4813669F405C0833639F084364D
S113057041F406C06ABB089567BB089564BB08953F
S113058061BB08958434D9F0853438F4823499F009
S1130590833498F48134A1F40CC0823661F083363C
S11305A018F4813669F405C0833639F0843641F491
S11305B006C06BBB089568BB089565BB089562BB14
S11305C008958434D9F0853438F4823499F083342E
S11305D098F48134A9F40CC0823661F0833618F49F
S11305E0813671F405C0833639F0843649F406C087
S11305F089B3089586B3089583B3089580B30895A5
S11306000895843409F1853438F48234A9F08334AC
S1130610B8F48134E1F40CC0823671F0833618F4F6
S11306208136A9F405C0833659F0843681F40CC0B0
S11306308BB380958BBB089588B3809588BB089550
S113064085B3809585BB089582B3809582BB089558
S113065081E460E00E94490081E660E00E944E006F
S11306608FE996E8A1E081509040A040E1F700C0F6
S1130670000081E660E00E9453008FE996E8A1E063
S113068081509040A040E1F700C00000E5CFFB019D
S1130690DC018D91019080190110D9F3990B089513
S10706A0F894FFCFF8
S11306A44F55545055540048494748004C4F57003F
S11306B44F5554505554006F757470757400494EF9
S11306C450555400696E7075740048494748006871
S10F06D4696768004C4F57006C6F77009A
S9030000FC
