:100000000C942A000C9447000C9447000C94470071
:100010000C9447000C9447000C9447000C94470044
:100020000C9447000C9447000C9447000C94470034
:100030000C9447000C9447000C9447000C94470024
:100040000C9447000C9447000C9447000C94470014
:100050000C94470011241FBECFE5D8E0DEBFCDBF12
:1000600010E0A0E6B0E0ECE3F0E102C005900D92F4
:10007000A83CB107D9F710E0A8ECB0E001C01D9290
:10008000A83CB107E1F70E948D050C941C080C9464
:1000900000000F931F93CF93DF93C82FD62F8A01B1
:1000A000CA0160E670E00E941308282F392F21153D
:1000B000310559F0C80167E670E00E941308282F47
:1000C000392F2115310509F04BC0C43409F43CC067
:1000D000C53440F4C23401F1C33450F5C13409F0E1
:1000E000A0C00EC0C236C1F0C33620F4C13609F03C
:1000F00098C006C0C336E1F0C43609F092C024C0EF
:100100004AB321E030E0C90102C0880F991FDA9597
:10011000E2F7842B8ABB85C047B321E030E0C901F8
:1001200002C0880F991FDA95E2F7842B87BB79C04C
:1001300044B321E030E0C90102C0880F991FDA956D
:10014000E2F7842B84BB6DC041B321E030E0C901EC
:1001500002C0880F991FDA95E2F7842B81BB61C03A
:10016000C8016EE670E00E941308282F392F211570
:10017000310559F0C80164E770E00E941308282F88
:10018000392F2115310509F04CC0C43409F43DC0A4
:10019000C53440F4C234F9F0C33450F5C13409F029
:1001A00040C00CC0C236B9F0C33618F4C136C9F528
:1001B00005C0C336E9F0C436A1F527C04AB321E033
:1001C00030E0C90102C0880F991FDA95E2F78095E7
:1001D00084238ABB26C047B321E030E0C90102C0B6
:1001E000880F991FDA95E2F78095842387BB19C0A1
:1001F00044B321E030E0C90102C0880F991FDA95AD
:10020000E2F78095842384BB0CC041B321E030E049
:10021000C90102C0880F991FDA95E2F780958423FF
:1002200081BBDF91CF911F910F9108950F931F9381
:10023000CF93DF93C82FD62F8A01CA016AE770E0F7
:100240000E941308282F392F21153105A9F0C80164
:100250006FE770E00E941308282F392F2115310510
:1002600059F0C80164E870E00E941308282F392F64
:100270002115310509F04BC0C43409F43CC0C53424
:1002800040F4C23401F1C33450F5C13409F0AAC0BE
:100290000EC0C236C1F0C33620F4C13609F0A2C088
:1002A00006C0C336E1F0C43609F09CC024C04BB38D
:1002B00021E030E0C90102C0880F991FDA95E2F70A
:1002C000842B8BBB8FC048B321E030E0C90102C052
:1002D000880F991FDA95E2F7842B88BB83C045B35A
:1002E00021E030E0C90102C0880F991FDA95E2F7DA
:1002F000842B85BB77C042B321E030E0C90102C046
:10030000880F991FDA95E2F7842B82BB6BC0C80176
:1003100066E870E00E941308282F392F2115310557
:10032000A9F0C8016AE870E00E941308282F392F4D
:100330002115310559F0C8016EE870E00E941308DC
:10034000282F392F2115310509F04CC0C43409F488
:100350003DC0C53440F4C234F9F0C33450F5C13463
:1003600009F040C00CC0C236B9F0C33618F4C1362B
:10037000C9F505C0C336E9F0C436A1F527C04BB3B3
:1003800021E030E0C90102C0880F991FDA95E2F739
:10039000809584238BBB26C048B321E030E0C9019F
:1003A00002C0880F991FDA95E2F78095842388BBF5
:1003B00019C045B321E030E0C90102C0880F991F80
:1003C000DA95E2F78095842385BB0CC042B321E027
:1003D00030E0C90102C0880F991FDA95E2F78095D5
:1003E000842382BBDF91CF911F910F9108958434B4
:1003F00009F43DC0853440F48234F9F0833450F57B
:10040000813409F040C00CC08236B9F0833618F44C
:100410008136C9F505C08336E9F08436A1F527C0D9
:100420002BB381E090E0AC0102C0440F551F6A95E8
:10043000E2F7BA0162276BBB089528B381E090E030
:10044000AC0102C0440F551F6A95E2F7BA0162275A
:1004500068BB089525B381E090E0AC0102C0440F71
:10046000551F6A95E2F7BA01622765BB089522B36A
:1004700081E090E0AC0102C0440F551F6A95E2F79D
:10048000BA01622762BB0895843409F44EC08534F2
:1004900040F4823431F18334B0F5813409F057C02F
:1004A0000EC08236F1F0833620F4813609F04FC059
:1004B00006C0833641F1843609F049C036C029B3FD
:1004C00081E090E0062E02C0880F991F0A94E2F79F
:1004D00030E08223932302C0959587956A95E2F7D1
:1004E000089526B381E090E0062E02C0880F991F80
:1004F0000A94E2F730E08223932302C09595879512
:100500006A95E2F7089523B381E090E0062E02C0D9
:10051000880F991F0A94E2F730E08223932302C0E8
:10052000959587956A95E2F7089520B381E090E06C
:10053000062E02C0880F991F0A94E2F730E082234A
:10054000932302C0959587956A95E2F708950895DB
:100550000F931F93CF93C82F8B01CB0160E670E000
:100560000E941308282F392F2115310551F0C80199
:1005700067E670E00E941308282F392F21153105F6
:1005800031F5C43409F1C53440F4C234B9F0C33490
:10059000C0F4C13409F04DC00EC0C23679F0C33684
:1005A00020F4C13609F045C006C0C33651F0C43648
:1005B00009F03FC009C08FEF8ABB3BC08FEF87BBFC
:1005C00038C08FEF84BB35C08FEF81BB32C0C8010C
:1005D0006EE670E00E941308282F392F211531058F
:1005E00051F0C80164E770E00E941308282F392FEA
:1005F00021153105F1F4C434D9F0C53438F4C234CE
:1006000099F0C33498F4C134A1F40CC0C23661F03F
:10061000C33618F4C13669F405C0C33639F0C436A0
:1006200041F406C01ABA05C017BA03C014BA01C013
:1006300011BACF911F910F9108958434D9F0853468
:1006400038F4823499F0833498F48134A1F40CC0E6
:10065000823661F0833618F4813669F405C083363A
:1006600039F0843641F406C06BBB089568BB089529
:1006700065BB089562BB08958434D9F0853438F49D
:10068000823499F0833498F48134A9F40CC0823612
:1006900061F0833618F4813671F405C0833639F081
:1006A000843649F406C089B3089586B3089583B3A8
:1006B000089580B308950895843409F1853438F499
:1006C0008234A9F08334B8F48134E1F40CC082366A
:1006D00071F0833618F48136A9F405C0833659F0D9
:1006E000843681F40CC08BB380958BBB089588B39E
:1006F000809588BB089585B3809585BB089582B3A6
:10070000809582BB0895843409F471C0853448F41F
:10071000823499F1833408F04DC0813409F083C0EC
:100720000FC0823651F1833620F4813609F07BC048
:1007300007C0833609F43EC0843609F074C057C040
:10074000413069F42BB381E090E0AC0102C0440F6A
:10075000551F6A95E2F7BA01622B6BBB08952BB364
:1007600081E090E0AC0102C0440F551F6A95E2F7AA
:10077000BA01609562236BBB0895413069F428B3D8
:1007800081E090E0AC0102C0440F551F6A95E2F78A
:10079000BA01622B68BB089528B381E090E0AC01F8
:1007A00002C0440F551F6A95E2F7BA0160956223B3
:1007B00068BB0895413069F425B381E090E0AC0155
:1007C00002C0440F551F6A95E2F7BA01622B65BB60
:1007D000089525B381E090E0AC0102C0440F551F9D
:1007E0006A95E2F7BA016095622365BB08954130CE
:1007F00069F422B381E090E0AC0102C0440F551FC0
:100800006A95E2F7BA01622B62BB089522B381E0D8
:1008100090E0AC0102C0440F551F6A95E2F7BA019F
:100820006095622362BB0895EF92FF921F93CF936E
:10083000DF9300D000D0CDB7DEB7182F8EE890E060
:100840009A83898384E890E09C838B83E62EFF243F
:10085000F701E170F070EE0FFF1F81E090E08C0F68
:100860009D1FE80FF91F40815181812F60E00E9498
:100870001601F701E270F07081E090E08C0F9D1F8F
:10088000E80FF91F40815181812F61E00E9416011C
:10089000F701E470F070F595E795F595E795EE0FA3
:1008A000FF1F81E090E08C0F9D1FE80FF91F408132
:1008B0005181812F62E00E94160198E0E922FF2415
:1008C000F701F595E795F595E795F595E795EE0F21
:1008D000FF1F81E090E08C0F9D1FE80FF91F408102
:1008E0005181812F63E00E9416010F900F900F90AD
:1008F0000F90DF91CF911F91FF90EF900895EF92AD
:10090000FF921F93CF93DF9300D000D0CDB7DEB717
:10091000182F8EE890E09A83898384E890E09C8386
:100920008B83E62EFF24F701E170F070EE0FFF1FBE
:1009300081E090E08C0F9D1FE80FF91F40815181ED
:10094000812F64E00E941601F701E270F07081E0EF
:1009500090E08C0F9D1FE80FF91F40815181812F7E
:1009600065E00E941601F701E470F070F595E795D7
:10097000F595E795EE0FFF1F81E090E08C0F9D1F2E
:10098000E80FF91F40815181812F66E00E94160116
:1009900098E0E922FF24F701F595E795F595E795AD
:1009A000F595E795EE0FFF1F81E090E08C0F9D1FFE
:1009B000E80FF91F40815181812F67E00E941601E5
:1009C0000F900F900F900F90DF91CF911F91FF909C
:1009D000EF9008956F70843451F1853438F4823487
:1009E000C1F08334E8F4813441F50CC0823689F0DB
:1009F000833618F4813609F505C0833689F08436CC
:100A0000E1F415C08BB3807F8BBB8BB3682B6BBBC2
:100A1000089588B3807F88BB88B3682B68BB08952E
:100A200085B3807F85BB85B3682B65BB089582B392
:100A3000807F82BB82B3682B62BB08956295607F22
:100A4000843451F1853438F48234C1F08334E8F4CD
:100A5000813441F50CC0823689F0833618F4813632
:100A600009F505C0833689F08436E1F415C08BB3EF
:100A7000807F8BBB8BB3682B6BBB089588B3807F63
:100A800088BB88B3682B68BB089585B3807F85BB1E
:100A900085B3682B65BB089582B3807F82BB82B328
:100AA000682B62BB08951F93CF93DF93182FC0E686
:100AB000D0E060E0AE010E944900812F61E0AE010C
:100AC0000E944900812F62E0AE010E944900812FFF
:100AD00063E0AE010E944900DF91CF911F9108951C
:100AE0001F93CF93DF93182FC0E6D0E064E0AE01F0
:100AF0000E944900812F65E0AE010E944900812FCC
:100B000066E0AE010E944900812F67E0AE010E94BD
:100B10004900DF91CF911F9108950E949C0784E6C0
:100B20000E94A5050E94A006C82F882339F081E005
:100B300061E00E94FD078C2F0E947A0787EA91E608
:100B40000197F1F700C00000EDCF0F931F93CF93F3
:100B5000C82F00E910E060E0A8010E9449008C2F36
:100B600061E0A8010E9449008C2F62E0A8010E9468
:100B700049008C2F63E0A8010E94490007E910E0BA
:100B80008C2F64E0A8010E9449008C2F65E0A80129
:100B90000E9449008C2F66E0A8010E9449008C2F1A
:100BA00067E0A8010E9449008C2F64E041E00E94A8
:100BB00083038C2F65E041E00E9483038C2F66E065
:100BC00041E00E9483038C2F67E041E00E94830391
:100BD000CF911F910F910895CF93DF9384E660E04A
:100BE0004EE950E00E941601C2EAD0E084E661E0DE
:100BF000AE010E94160184E662E0AE010E94160179
:100C000084E663E0AE010E94160183EC99E001974F
:100C1000F1F700C00000849B71C0859B71C0869B6A
:100C200071C0879B71C084E660E0AE010E9416012E
:100C300084E661E04EE950E00E94160184E662E03D
:100C4000AE010E94160184E663E0AE010E94160127
:100C500083EC99E00197F1F700C00000849B56C037
:100C6000859B56C0869B56C0879B56C084E660E035
:100C7000AE010E94160184E661E0AE010E941601F9
:100C800084E662E04EE950E00E94160184E663E0EB
:100C9000AE010E94160183EC99E00197F1F700C0C4
:100CA0000000849B3BC0859B3BC0869B3BC0879BD1
:100CB0003BC084E660E0AE010E94160184E661E07C
:100CC000AE010E94160184E662E0AE010E941601A8
:100CD00084E663E04EE950E00E94160183EC99E05F
:100CE0000197F1F700C00000849B20C0859B20C0C5
:100CF000869B20C0879920C084E41FC087E31DC065
:100D000088E31BC089E319C081E417C084E315C0E0
:100D100085E313C086E311C082E40FC081E30DC0F8
:100D200082E30BC083E309C083E407C08AE205C005
:100D300080E303C083E201C080E0DF91CF9108959A
:100D40006F927F928F929F92AF92BF92CF92DF92DB
:100D5000EF92FF920F931F93CF93DF93CDB7DEB740
:100D600060970FB6F894DEBF0FBECDBFDE011196BF
:100D7000E7EAF0E080E101900D928150E1F7EE2486
:100D8000FF2402EA10E00F2EFEE9CF2EF0E0DF2E66
:100D9000F02DAA24BB2488249924839466247724E4
:100DA000689461F883EC99E00197F1F700C00000C6
:100DB00084E660E0A8010E94160184E661E0A801D3
:100DC0000E94160184E662E0A8010E94160184E6F2
:100DD00063E0A8010E94160184E66E2DA6010E9420
:100DE0001601849B08C0859B04C086991CC0C30162
:100DF00003C0C40101C0C5019701220F331F220F98
:100E0000331F820F931FE1E0F0E0EC0FFD1F8E0F08
:100E10009F1FFC018081E3ECF9E03197F1F700C0FE
:100E20000000882349F40894E11CF11CF4E0EF165B
:100E3000F10409F0B7CF80E060960FB6F894DEBFFA
:100E40000FBECDBFDF91CF911F910F91FF90EF901B
:100E5000DF90CF90BF90AF909F908F907F906F90DA
:100E6000089582E460E047EB50E00E94160189EFAC
:100E700090E00197F1F700C0000082E460E04CEBE5
:100E800050E00E94160189EF90E00197F1F700C051
:100E9000000008951F93CF93DF93182FCCEBD0E081
:100EA00082E461E0AE010E941601612F62956F70CD
:100EB00081E40E94EA040E94310782E461E0AE010D
:100EC0000E94160181E4612F0E94EA040E9431070A
:100ED0001150123038F483EF91E00197F1F700C020
:100EE000000004C091E29A95F1F70000DF91CF91E4
:100EF0001F9108951F93CF93DF93182FC7EBD0E076
:100F000082E461E0AE010E941601612F62956F706C
:100F100081E40E94EA040E94310782E461E0AE01AC
:100F20000E94160181E4612F0E94EA040E943107A9
:100F3000DF91CF911F910895CF93DF9381E490E0EB
:100F40000E945305C0ECD0E082E461E0AE010E9453
:100F5000490082E460E0AE010E9449008BE49DE11B
:100F60000197F1F700C0000082E00E944A0783EC7D
:100F700099E00197F1F700C0000088E20E944A075B
:100F800089EF90E00197F1F700C000008EE00E9429
:100F90004A0789EF90E00197F1F700C0000081E077
:100FA0000E944A0783EC99E00197F1F700C0000026
:100FB00086E00E944A0789EF90E00197F1F700C0B0
:100FC0000000DF91CF91089581E00E944A0783EFEE
:100FD00091E00197F1F700C000000895CF93DF93EF
:100FE000EC018881882331F021960E947A0789914B
:100FF0008823D9F7DF91CF910895813029F46131A9
:1010000050F4862F81580CC0823039F4613138F4A5
:10101000862F815405C080E803C080E801C080E8C5
:101020000E944A070895FB01DC018D91019080190F
:0C1030000110D9F3990B0895F894FFCF3C
:10103C004F5554505554006F757470757400494E6B
:10104C0050555400696E70757400484947480068E3
:10105C006967680031004C4F57006C6F77003000A7
:10106C004F555450555400494E54505554004C4F04
:10107C00570048494748003738392F3435362A311C
:10108C0032332D41303D2B48494748004C4F5700D7
:08109C004F555450555400005B
:00000001FF
