S012000037205345474D454E54532E7372656355
S11300000C942A000C9447000C9447000C9447006D
S11300100C9447000C9447000C9447000C94470040
S11300200C9447000C9447000C9447000C94470030
S11300300C9447000C9447000C9447000C94470020
S11300400C9447000C9447000C9447000C94470010
S11300500C94470011241FBECFE5D8E0DEBFCDBF0E
S113006010E0A0E6B0E0EAEBFCE002C005900D92DF
S1130070A83CB107D9F710E0A8ECB0E001C01D928C
S1130080A83CB107E1F70E9449000C945B060C946C
S1130090000083E40E947A0081E460E00E94460646
S11300A081E690E060E070E041E050E00E94760478
S11300B082E40E947A0084E460E670E00E94A10079
S11300C0C0E0D0E004E610E0EE24FF2484E46C2FCA
S11300D0A8010E94FF008FE392E4AFE081509040BA
S11300E0A040E1F700C000002196CA30D10574F3A6
S11300F0E701ECCF68E670E00E949B030895CF937C
S1130100DF93CDB7DEB72A970FB6F894DEBF0FBEE4
S1130110CDBFDE011196EFE6F0E09AE001900D927A
S11301209150E1F7FE01E60FF11D61810E94100478
S11301302A960FB6F894DEBF0FBECDBFDF91CF91E4
S113014008951F93CF93DF93182FEB01CB0169E739
S113015070E00E945206282F392F2115310551F0E5
S1130160CE016DE770E00E945206282F392F211529
S11301703105B9F4C1E8D0E0812F60E0AE010E94FE
S11301803C01812F61E0AE010E943C01812F62E0BD
S1130190AE010E943C01812F63E0AE010E943C014C
S11301A02AC0CE0168E870E00E945206282F392F39
S11301B02115310551F0CE016DE870E00E94520620
S11301C0282F392F21153105B1F4C1E8D0E0812F52
S11301D064E0AE010E943C01812F65E0AE010E9403
S11301E03C01812F66E0AE010E943C01812F67E053
S11301F0AE010E943C01DF91CF911F9108950F93AE
S11302001F93CF93DF93182F062FEA01CA0169E7E2
S113021070E00E945206282F392F2115310551F024
S1130220CE016DE770E00E945206282F392F211568
S1130230310529F4812F602F0E94DD0518C0CE01FD
S113024068E870E00E945206282F392F21153105E5
S113025051F0CE016DE870E00E945206282F392F2C
S11302602115310521F4812F602F0E941106DF91A1
S1130270CF911F910F9108950F931F93CF93DF9305
S1130280C82FD62F8A01CA0162E970E00E94520683
S1130290282F392F2115310559F0C80169E970E07B
S11302A00E945206282F392F2115310509F04BC021
S11302B0C43409F43CC0C53440F4C23401F1C3343D
S11302C050F5C13409F0A0C00EC0C236C1F0C33627
S11302D020F4C13609F098C006C0C336E1F0C43634
S11302E009F092C024C04AB321E030E0C90102C041
S11302F0880F991FDA95E2F7842B8ABB85C047B330
S113030021E030E0C90102C0880F991FDA95E2F7B5
S1130310842B87BB79C044B321E030E0C90102C01B
S1130320880F991FDA95E2F7842B84BB6DC041B323
S113033021E030E0C90102C0880F991FDA95E2F785
S1130340842B81BB61C0C80160EA70E00E94520640
S1130350282F392F2115310559F0C80166EA70E0BC
S11303600E945206282F392F2115310509F04CC05F
S1130370C43409F43DC0C53440F4C234F9F0C33484
S113038050F5C13409F040C00CC0C236B9F0C336D0
S113039018F4C136C9F505C0C336E9F0C436A1F571
S11303A027C04AB321E030E0C90102C0880F991F79
S11303B0DA95E2F7809584238ABB26C047B321E00F
S11303C030E0C90102C0880F991FDA95E2F78095E1
S11303D0842387BB19C044B321E030E0C90102C0C3
S11303E0880F991FDA95E2F78095842384BB0CC0AB
S11303F041B321E030E0C90102C0880F991FDA95AA
S1130400E2F78095842381BBDF91CF911F910F91F7
S113041008950F931F93CF93DF93C82FD62F8A018C
S1130420CA016CEA70E00E945206282F392F211568
S11304303105A9F0C80161EB70E00E945206282F33
S1130440392F2115310559F0C80166EB70E00E947F
S11304505206282F392F2115310509F04BC0C43419
S113046009F43CC0C53440F4C23401F1C33450F53E
S1130470C13409F0AAC00EC0C236C1F0C33620F49C
S1130480C13609F0A2C006C0C336E1F0C43609F093
S11304909CC024C04BB321E030E0C90102C0880FE6
S11304A0991FDA95E2F7842B8BBB8FC048B321E008
S11304B030E0C90102C0880F991FDA95E2F7842B56
S11304C088BB83C045B321E030E0C90102C0880F76
S11304D0991FDA95E2F7842B85BB77C042B321E0FC
S11304E030E0C90102C0880F991FDA95E2F7842B26
S11304F082BB6BC0C80168EB70E00E945206282FD3
S1130500392F21153105A9F0C8016CEB70E00E9468
S11305105206282F392F2115310559F0C80160ECF6
S113052070E00E945206282F392F2115310509F059
S11305304CC0C43409F43DC0C53440F4C234F9F0AD
S1130540C33450F5C13409F040C00CC0C236B9F010
S1130550C33618F4C136C9F505C0C336E9F0C4364C
S1130560A1F527C04BB321E030E0C90102C0880FD8
S1130570991FDA95E2F7809584238BBB26C048B394
S113058021E030E0C90102C0880F991FDA95E2F733
S11305908095842388BB19C045B321E030E0C901AC
S11305A002C0880F991FDA95E2F78095842385BBF2
S11305B00CC042B321E030E0C90102C0880F991F8A
S11305C0DA95E2F78095842382BBDF91CF911F9166
S11305D00F910895843409F43DC0853440F4823485
S11305E0F9F0833450F5813409F040C00CC08236F0
S11305F0B9F0833618F48136C9F505C08336E9F0BD
S11306008436A1F527C02BB381E090E0AC0102C091
S1130610440F551F6A95E2F7BA0162276BBB089530
S113062028B381E090E0AC0102C0440F551F6A95E5
S1130630E2F7BA01622768BB089525B381E090E030
S1130640AC0102C0440F551F6A95E2F7BA01622754
S113065065BB089522B381E090E0AC0102C0440F71
S1130660551F6A95E2F7BA01622762BB0895843484
S113067009F44EC0853440F4823431F18334B0F54A
S1130680813409F057C00EC08236F1F0833620F46D
S1130690813609F04FC006C0833641F1843609F033
S11306A049C036C029B381E090E0062E02C0880F0D
S11306B0991F0A94E2F730E08223932302C09595B0
S11306C087956A95E2F7089526B381E090E0062EB7
S11306D002C0880F991F0A94E2F730E08223932323
S11306E002C0959587956A95E2F7089523B381E052
S11306F090E0062E02C0880F991F0A94E2F730E0BA
S11307008223932302C0959587956A95E2F708950D
S113071020B381E090E0062E02C0880F991F0A944E
S1130720E2F730E08223932302C0959587956A957A
S1130730E2F7089508950F931F93CF93C82F8B0169
S1130740CB0162E970E00E945206282F392F21154F
S1130750310551F0C80169E970E00E945206282F62
S1130760392F2115310531F5C43409F1C53440F46C
S1130770C234B9F0C334C0F4C13409F04DC00EC062
S1130780C23679F0C33620F4C13609F045C006C03C
S1130790C33651F0C43609F03FC009C08FEF8ABB9D
S11307A03BC08FEF87BB38C08FEF84BB35C08FEF62
S11307B081BB32C0C80160EA70E00E945206282F53
S11307C0392F2115310551F0C80166EA70E00E9405
S11307D05206282F392F21153105F1F4C434D9F0EC
S11307E0C53438F4C23499F0C33498F4C134A1F454
S11307F00CC0C23661F0C33618F4C13669F405C0C2
S1130800C33639F0C43641F406C01ABA05C017BA63
S113081003C014BA01C011BACF911F910F9108956A
S11308208434D9F0853438F4823499F0833498F4DC
S11308308134A1F40CC0823661F0833618F4813619
S113084069F405C0833639F0843641F406C06BBBC5
S1130850089568BB089565BB089562BB0895843408
S1130860D9F0853438F4823499F0833498F481349F
S1130870A9F40CC0823661F0833618F4813671F421
S113088005C0833639F0843649F406C089B3089527
S113089086B3089583B3089580B308950895843486
S11308A009F1853438F48234A9F08334B8F48134FE
S11308B0E1F40CC0823671F0833618F48136A9F461
S11308C005C0833659F0843681F40CC08BB380950F
S11308D08BBB089588B3809588BB089585B38095B4
S11308E085BB089582B3809582BB0895843409F44E
S11308F071C0853448F4823499F1833408F04DC0D2
S1130900813409F083C00FC0823651F1833620F45C
S1130910813609F07BC007C0833609F43EC08436B3
S113092009F074C057C0413069F42BB381E090E002
S1130930AC0102C0440F551F6A95E2F7BA01622B5D
S11309406BBB08952BB381E090E0AC0102C0440F6F
S1130950551F6A95E2F7BA01609562236BBB08954F
S1130960413069F428B381E090E0AC0102C0440F47
S1130970551F6A95E2F7BA01622B68BB089528B344
S113098081E090E0AC0102C0440F551F6A95E2F784
S1130990BA016095622368BB0895413069F425B3B8
S11309A081E090E0AC0102C0440F551F6A95E2F764
S11309B0BA01622B65BB089525B381E090E0AC01D8
S11309C002C0440F551F6A95E2F7BA01609562238D
S11309D065BB0895413069F422B381E090E0AC0135
S11309E002C0440F551F6A95E2F7BA01622B62BB3D
S11309F0089522B381E090E0AC0102C0440F551F7A
S1130A006A95E2F7BA016095622362BB0895EF929A
S1130A10FF921F93CF93DF9300D000D0CDB7DEB702
S1130A20182F80EC90E09A83898386EB90E09C8376
S1130A308B83E62EFF24F701E170F070EE0FFF1FA9
S1130A4081E090E08C0F9D1FE80FF91F40815181D8
S1130A50812F60E00E940902F701E270F07081E0EA
S1130A6090E08C0F9D1FE80FF91F40815181812F69
S1130A7061E00E940902F701E470F070F595E795D2
S1130A80F595E795EE0FFF1F81E090E08C0F9D1F19
S1130A90E80FF91F40815181812F62E00E94090211
S1130AA098E0E922FF24F701F595E795F595E79598
S1130AB0F595E795EE0FFF1F81E090E08C0F9D1FE9
S1130AC0E80FF91F40815181812F63E00E940902E0
S1130AD00F900F900F900F90DF91CF911F91FF9087
S1130AE0EF900895EF92FF921F93CF93DF9300D07E
S1130AF000D0CDB7DEB7182F80EC90E09A838983BD
S1130B0086EB90E09C838B83E62EFF24F701E17053
S1130B10F070EE0FFF1F81E090E08C0F9D1FE80F37
S1130B20F91F40815181812F64E00E940902F7017D
S1130B30E270F07081E090E08C0F9D1FE80FF91FC8
S1130B4040815181812F65E00E940902F701E47020
S1130B50F070F595E795F595E795EE0FFF1F81E0A9
S1130B6090E08C0F9D1FE80FF91F40815181812F68
S1130B7066E00E94090298E0E922FF24F701F59556
S1130B80E795F595E795F595E795EE0FFF1F81E05D
S1130B9090E08C0F9D1FE80FF91F40815181812F38
S1130BA067E00E9409020F900F900F900F90DF9161
S1130BB0CF911F91FF90EF9008956F70843451F19D
S1130BC0853438F48234C1F08334E8F4813441F557
S1130BD00CC0823689F0833618F4813609F505C0D5
S1130BE0833689F08436E1F415C08BB3807F8BBBE8
S1130BF08BB3682B6BBB089588B3807F88BB88B3A5
S1130C00682B68BB089585B3807F85BB85B3682B4B
S1130C1065BB089582B3807F82BB82B3682B62BBBD
S1130C2008956295607F843451F1853438F48234B8
S1130C30C1F08334E8F4813441F50CC0823689F084
S1130C40833618F4813609F505C0833689F0843675
S1130C50E1F415C08BB3807F8BBB8BB3682B6BBB6C
S1130C60089588B3807F88BB88B3682B68BB0895D8
S1130C7085B3807F85BB85B3682B65BB089582B33C
S1130C80807F82BB82B3682B62BB089590E070E0E2
S1130C9042EC50E00E943C01089590E070E00E9414
S1130CA037030895FB01DC018D9101908019011037
S10D0CB0D9F3990B0895F894FFCFCF
S1130CBA4C4F57006C6F77006F7574707574003FF2
S1130CCA065B4F666D7D477F6F4C4F57006C6F779D
S1130CDA004F5554505554004849474800686967BD
S1130CEA68004F5554505554006F757470757400EC
S1130CFA494E50555400696E707574004849474806
S1130D0A00686967680031004C4F57006C6F7700C0
S10B0D1A3000494E505554000D
S9030000FC
