S00B00004932432E737265635B
S11300000C942A000C9447000C9447000C9447006D
S11300100C9447000C9447000C9447000C94470040
S11300200C9447000C9447000C9447000C94470030
S11300300C9447000C9447000C9447000C94470020
S11300400C9447000C9447000C9447000C94470010
S11300500C94470011241FBECFE5D8E0DEBFCDBF0E
S113006010E0A0E6B0E0E0EAF1E002C005900D92F5
S1130070A036B107D9F710E0A0E6B0E001C01D92A8
S1130080A036B107E1F70E9449000C94CE000C940D
S11300900000FFCF9B01AC0111B860E072E18AE778
S11300A090E00E94AC00DA01C9014097A109B109AE
S11300B0B695A7959795879580B90895A39A95B312
S11300C088E0892785BB089584EA86BF06B607FEC3
S11300D0FDCF81B1887F883011F00E945E000895C1
S11300E0962F9170880F982B93B984E886BF06B633
S11300F007FEFDCF662329F481B1887F883139F466
S11301000895613031F481B1887F803411F00E9408
S11301105E00089583B984E886BF06B607FEFDCF66
S113012081B1887F883211F00E945E00089584E9CD
S113013086BF08956170880F682B62B9089584ECB6
S113014086BF06B607FEFDCF81B1887F803811F0E7
S11301500E945E0083B10895A1E21A2EAA1BBB1B64
S1130160FD010DC0AA1FBB1FEE1FFF1FA217B3077F
S1130170E407F50720F0A21BB30BE40BF50B661F95
S1130180771F881F991F1A9469F760957095809559
S113019090959B01AC01BD01CF010895F894FFCF68
S9030000FC
