:100000000C9434000C9451000C9451000C94510049
:100010000C9451000C9451000C9451000C9451001C
:100020000C9451000C9451000C9451000C9451000C
:100030000C9451000C9451000C9451000C945100FC
:100040000C9451000C9451000C9451000C945100EC
:100050000C9451000C9451000C9451000C945100DC
:100060000C9451000C94510011241FBECFEFD8E026
:10007000DEBFCDBF11E0A0E0B1E0EEE7F0E102C0ED
:1000800005900D92A636B107D9F711E0A6E6B1E0CA
:1000900001C01D92A636B107E1F70E9453000C94EF
:1000A0003D080C94000085B78F7E85BF0E94BE0777
:1000B00084E490E00E94A9050E949106C82F815017
:1000C0008E3F38F481E061E00E941E088C2F0E9470
:1000D0009C078FEF93ECA9E081509040A040E1F79E
:1000E00000C00000E9CF0F931F93CF93DF93C82F79
:1000F000D62F8A01CA0160E071E00E943408282FDF
:10010000392F2115310559F0C80167E071E00E94CF
:100110003408282F392F2115310509F04BC0C4347C
:1001200009F43CC0C53440F4C23401F1C33450F585
:10013000C13409F0A0C00EC0C236C1F0C33620F4ED
:10014000C13609F098C006C0C336E1F0C43609F0E4
:1001500092C024C044B121E030E0C90102C0880F40
:10016000991FDA95E2F7842B84B985C044B121E068
:1001700030E0C90102C0880F991FDA95E2F7842B9D
:1001800084B979C047B121E030E0C90102C0880FCD
:10019000991FDA95E2F7842B87B96DC04AB121E047
:1001A00030E0C90102C0880F991FDA95E2F7842B6D
:1001B0008AB961C0C8016EE071E00E943408282F3E
:1001C000392F2115310559F0C80164E171E00E9411
:1001D0003408282F392F2115310509F04CC0C434BB
:1001E00009F43DC0C53440F4C234F9F0C33450F5CD
:1001F000C13409F040C00CC0C236B9F0C33618F49F
:10020000C136C9F505C0C336E9F0C436A1F527C02B
:1002100044B121E030E0C90102C0880F991FDA958E
:10022000E2F78095842384B926C044B121E030E010
:10023000C90102C0880F991FDA95E2F780958423DF
:1002400084B919C047B121E030E0C90102C0880F6C
:10025000991FDA95E2F78095842387B90CC04AB1DB
:1002600021E030E0C90102C0880F991FDA95E2F75A
:10027000809584238AB9DF91CF911F910F910895C2
:100280000F931F93CF93DF93C82FD62F8A01CA01F4
:100290006AE171E00E943408282F392F21153105B9
:1002A000A9F0C8016FE171E00E943408282F392FAE
:1002B0002115310559F0C80164E271E00E9434084B
:1002C000282F392F2115310509F04BC0C43409F40A
:1002D0003CC0C53440F4C23401F1C33450F5C134DC
:1002E00009F0AAC00EC0C236C1F0C33620F4C13630
:1002F00009F0A2C006C0C336E1F0C43609F09CC0C4
:1003000024C045B121E030E0C90102C0880F991F27
:10031000DA95E2F7842B85B98FC045B121E030E052
:10032000C90102C0880F991FDA95E2F7842B85B9BD
:1003300083C048B121E030E0C90102C0880F991F95
:10034000DA95E2F7842B88B977C04BB121E030E031
:10035000C90102C0880F991FDA95E2F7842B8BB987
:100360006BC0C80166E271E00E943408282F392F63
:1003700021153105A9F0C8016AE271E00E94340834
:10038000282F392F2115310559F0C8016EE271E08F
:100390000E943408282F392F2115310509F04CC04F
:1003A000C43409F43DC0C53440F4C234F9F0C33458
:1003B00050F5C13409F040C00CC0C236B9F0C336A4
:1003C00018F4C136C9F505C0C336E9F0C436A1F545
:1003D00027C045B121E030E0C90102C0880F991F54
:1003E000DA95E2F78095842385B926C045B121E0EE
:1003F00030E0C90102C0880F991FDA95E2F78095B5
:10040000842385B919C048B121E030E0C90102C098
:10041000880F991FDA95E2F78095842388B90CC07C
:100420004BB121E030E0C90102C0880F991FDA9575
:10043000E2F7809584238BB9DF91CF911F910F91C3
:100440000895843409F43DC0853440F48234F9F0D1
:10045000833450F5813409F040C00CC08236B9F0C5
:10046000833618F48136C9F505C08336E9F0843641
:10047000A1F527C025B181E090E0AC0102C0440F96
:10048000551F6A95E2F7BA01622765B9089525B14B
:1004900081E090E0AC0102C0440F551F6A95E2F77D
:1004A000BA01622765B9089528B181E090E0AC01F6
:1004B00002C0440F551F6A95E2F7BA01622768B976
:1004C00008952BB181E090E0AC0102C0440F551FAC
:1004D0006A95E2F7BA0162276BB90895843409F48A
:1004E0004EC0853440F4823431F18334B0F5813428
:1004F00009F057C00EC08236F1F0833620F4813601
:1005000009F04FC006C0833641F1843609F049C076
:1005100036C023B181E090E0062E02C0880F991FFB
:100520000A94E2F730E08223932302C095958795E1
:100530006A95E2F7089523B181E090E0062E02C0AB
:10054000880F991F0A94E2F730E08223932302C0B8
:10055000959587956A95E2F7089526B181E090E038
:10056000062E02C0880F991F0A94E2F730E082231A
:10057000932302C0959587956A95E2F7089529B16E
:1005800081E090E0062E02C0880F991F0A94E2F7DE
:1005900030E08223932302C0959587956A95E2F710
:1005A000089508950F931F93CF93C82F8B01CB010C
:1005B00060E071E00E943408282F392F21153105A1
:1005C00051F0C80167E071E00E943408282F392FEC
:1005D0002115310531F5C43409F1C53440F4C23474
:1005E000B9F0C334C0F4C13409F04DC00EC0C236F6
:1005F00079F0C33620F4C13609F045C006C0C336D1
:1006000051F0C43609F03FC009C08FEF84B93BC038
:100610008FEF84B938C08FEF87B935C08FEF8AB9B3
:1006200032C0C8016EE071E00E943408282F392FD3
:100630002115310551F0C80164E171E00E943408D0
:10064000282F392F21153105F1F4C434D9F0C534E0
:1006500038F4C23499F0C33498F4C134A1F40CC016
:10066000C23661F0C33618F4C13669F405C0C3362A
:1006700039F0C43641F406C014B805C014B803C03C
:1006800017B801C01AB8CF911F910F910895843403
:10069000D9F0853438F4823499F0833498F4813475
:1006A000A1F40CC0823661F0833618F4813669F407
:1006B00005C0833639F0843641F406C065B9089523
:1006C00065B9089568B908956BB908958434D9F06F
:1006D000853438F4823499F0833498F48134A9F461
:1006E0000CC0823661F0833618F4813671F405C08F
:1006F000833639F0843649F406C083B1089583B156
:10070000089586B1089589B108950895843409F152
:10071000853438F48234A9F08334B8F48134E1F4B8
:100720000CC0823671F0833618F48136A9F405C006
:10073000833659F0843681F40CC085B1809585B933
:10074000089585B1809585B9089588B1809588B957
:1007500008958BB180958BB90895823451F183341B
:1007600020F4813409F07BC007C0833409F43EC013
:10077000843409F074C057C0413069F425B181E078
:1007800090E0AC0102C0440F551F6A95E2F7BA0130
:10079000622B65B9089525B181E090E0AC0102C0FB
:1007A000440F551F6A95E2F7BA016095622365B957
:1007B0000895413069F425B181E090E0AC0102C0B8
:1007C000440F551F6A95E2F7BA01622B65B9089587
:1007D00025B181E090E0AC0102C0440F551F6A953D
:1007E000E2F7BA016095622365B90895413069F472
:1007F00028B181E090E0AC0102C0440F551F6A951A
:10080000E2F7BA01622B68B9089528B181E090E05F
:10081000AC0102C0440F551F6A95E2F7BA0160951A
:10082000622368B90895413069F42BB181E090E00A
:10083000AC0102C0440F551F6A95E2F7BA01622B62
:100840006BB908952BB181E090E0AC0102C0440F78
:10085000551F6A95E2F7BA01609562236BB9089556
:10086000EF92FF921F93CF93DF9300D000D0CDB7CC
:10087000DEB7182F8EE291E09A83898384E291E0BB
:100880009C838B83E62EFF24F701E170F070EE0F5E
:10089000FF1F81E090E08C0F9D1FE80FF91F408142
:1008A0005181812F60E00E944001F701E270F070F9
:1008B00081E090E08C0F9D1FE80FF91F408151816E
:1008C000812F61E00E944001F701E470F070F5951E
:1008D000E795F595E795EE0FFF1F81E090E08C0F0F
:1008E0009D1FE80FF91F40815181812F62E00E9416
:1008F000400198E0E922FF24F701F595E795F59589
:10090000E795F595E795EE0FFF1F81E090E08C0FDE
:100910009D1FE80FF91F40815181812F63E00E94E4
:1009200040010F900F900F900F90DF91CF911F918A
:10093000FF90EF900895EF92FF921F93CF93DF9374
:1009400000D000D0CDB7DEB7182F8EE291E09A83A9
:10095000898384E291E09C838B83E62EFF24F70158
:10096000E170F070EE0FFF1F81E090E08C0F9D1F93
:10097000E80FF91F40815181812F64E00E944001FE
:10098000F701E270F07081E090E08C0F9D1FE80F9E
:10099000F91F40815181812F65E00E944001F701DC
:1009A000E470F070F595E795F595E795EE0FFF1F6C
:1009B00081E090E08C0F9D1FE80FF91F408151816D
:1009C000812F66E00E94400198E0E922FF24F701B0
:1009D000F595E795F595E795F595E795EE0FFF1FEA
:1009E00081E090E08C0F9D1FE80FF91F408151813D
:1009F000812F67E00E9440010F900F900F900F90A1
:100A0000DF91CF911F91FF90EF9008956F70843424
:100A100051F1853438F48234C1F08334E8F4813400
:100A200041F50CC0823689F0833618F4813609F519
:100A300005C0833689F08436E1F415C085B1807F26
:100A400085B985B1682B65B9089585B1807F85B971
:100A500085B1682B65B9089588B1807F88B988B160
:100A6000682B68B908958BB1807F8BB98BB1682BE7
:100A70006BB908956295607F843451F1853438F400
:100A80008234C1F08334E8F4813441F50CC08236FD
:100A900089F0833618F4813609F505C0833689F06C
:100AA0008436E1F415C085B1807F85B985B1682BA6
:100AB00065B9089585B1807F85B985B1682B65B921
:100AC000089588B1807F88B988B1682B68B9089586
:100AD0008BB1807F8BB98BB1682B6BB908951F9355
:100AE000CF93DF93182FC0E0D1E060E0AE010E9409
:100AF0007300812F61E0AE010E947300812F62E0DC
:100B0000AE010E947300812F63E0AE010E9473006A
:100B1000DF91CF911F9108951F93CF93DF93182FEB
:100B2000C0E0D1E064E0AE010E947300812F65E077
:100B3000AE010E947300812F66E0AE010E94730037
:100B4000812F67E0AE010E947300DF91CF911F916A
:100B500008950F931F93CF93C82F00E311E060E037
:100B6000A8010E9473008C2F61E0A8010E9473000D
:100B70008C2F62E0A8010E9473008C2F63E0A80113
:100B80000E94730007E311E08C2F64E0A8010E942B
:100B900073008C2F65E0A8010E9473008C2F66E023
:100BA000A8010E9473008C2F67E0A8010E947300C7
:100BB0008C2F64E041E00E94AD038C2F65E041E0A2
:100BC0000E94AD038C2F66E041E00E94AD038C2FA4
:100BD00067E041E00E94AD03CF911F910F9108950E
:100BE0000F931F93CF93DF9384E660E04DE351E0D2
:100BF0000E944001C1E4D1E084E661E0AE010E94C0
:100C0000400184E662E0AE010E94400184E663E0B8
:100C1000AE010E94400183EC99E00197F1F700C01A
:100C200000004C9B02C0C0E001C0C1E34D9BC2E389
:100C30004E9BC3E34F9BC1E401E411E084E660E016
:100C4000A8010E94400184E661E04DE351E00E946A
:100C5000400184E662E0A8010E94400184E663E06E
:100C6000A8010E94400183EC99E00197F1F700C0D0
:100C700000004C9BC4E34D9BC5E34E9BC6E34F9BDA
:100C8000C2E401E411E084E660E0A8010E944001B2
:100C900084E661E0A8010E94400184E662E04DE341
:100CA00051E00E94400184E663E0A8010E944001F7
:100CB00083EC99E00197F1F700C000004C9BC7E37B
:100CC0004D9BC8E34E9BC9E34F9BC3E601E411E093
:100CD00084E660E0A8010E94400184E661E0A8018A
:100CE0000E94400184E662E0A8010E94400184E67F
:100CF00063E04DE351E00E94400183EC99E00197ED
:100D0000F1F700C000004C9BCAE24D9BC0E34E9B34
:100D1000C3E24F9BC4E48C2FDF91CF911F910F91C1
:100D200008952F923F924F925F926F927F928F928F
:100D30009F92BF92CF92DF92EF92FF920F931F93F9
:100D4000CF93DF93CDB7DEB760970FB6F894DEBFD1
:100D50000FBECDBFDE011196E6E4F1E080E1019027
:100D60000D928150E1F7EE24FF24BB24BA9401E4F4
:100D700011E00F2EFDE3CF2EF1E0DF2EF02D8824C1
:100D8000992466247724639444245524689441F874
:100D90000F2EF3E02F2E3324F02D84E460E0A80121
:100DA0000E94400184E461E0A8010E94400184E4C3
:100DB00062E0A8010E94400184E463E0A8010E946F
:100DC000400184E46E2DA6010E94400189B190E0AB
:100DD0008071907095958795959587959595879550
:100DE00095958795482F882359F189B190E08072B5
:100DF00090709595879595958795959587959595F7
:100E0000879595958795482F8823B1F089B190E013
:100E100080749070082E892F000C881F990B000C8D
:100E2000881F991F482F882349F049B1441F442740
:100E3000441FC1F4910105C0930103C0920101C098
:100E40009401C701880F991F880F991F820F931F64
:100E500021E030E02C0F3D1F820F931FFC01B0807A
:100E6000442341F00894E11CF11CF4E0EF16F10476
:100E700009F093CF8B2D60960FB6F894DEBF0FBEAE
:100E8000CDBFDF91CF911F910F91FF90EF90DF9039
:100E9000CF90BF909F908F907F906F905F904F907A
:100EA0003F902F90089582E464E046E551E00E946F
:100EB000400189EF90E00197F1F700C0000082E463
:100EC00064E04BE551E00E94400189EF90E001971A
:100ED000F1F700C0000008951F93CF93DF93182F00
:100EE000CBE5D1E082E465E0AE010E944001612FD4
:100EF00062956F7082E40E9406050E94530782E4A7
:100F000065E0AE010E94400182E4612F0E94060567
:100F10000E9453071150123038F483EF91E001978B
:100F2000F1F700C0000004C091E29A95F1F70000CB
:100F3000DF91CF911F9108951F93CF93DF93182FC7
:100F4000C6E5D1E082E465E0AE010E944001612F78
:100F500062956F7082E40E9406050E94530782E446
:100F600065E0AE010E94400182E4612F0E94060507
:100F70000E945307DF91CF911F910895CF93DF9384
:100F800082E40E946F05CFE5D1E082E465E0AE0126
:100F90000E94730082E464E0AE010E9473008BE45F
:100FA0009DE10197F1F700C0000082E00E946C070C
:100FB00083EC99E00197F1F700C0000088E20E94FD
:100FC0006C0789EF90E00197F1F700C000008EE018
:100FD0000E946C0789EF90E00197F1F700C00000D4
:100FE00081E00E946C0783EC99E00197F1F700C063
:100FF000000086E00E946C0789EF90E00197F1F70E
:1010000000C00000DF91CF91089581E00E946C073D
:1010100083EF91E00197F1F700C000000895CF93AE
:10102000DF93EC018881882331F021960E949C0790
:1010300089918823D9F7DF91CF910895813029F4E0
:10104000613150F4862F81580CC0823039F46131FF
:1010500038F4862F815405C080E803C080E801C0C1
:1010600080E80E946C070895FB01DC018D910190DE
:0E10700080190110D9F3990B0895F894FFCF61
:10107E004F5554505554006F757470757400494E29
:10108E0050555400696E70757400484947480068A1
:10109E006967680031004C4F57006C6F7700300065
:1010AE004F555450555400494E505554004C4F57BF
:1010BE0000484947480031323341343536423738DB
:1010CE00394341303D2B48494748004C4F57004F5C
:0610DE005554505554006A
:00000001FF
