S015000052656365697665725F4D4355322E7372656364
S11300000C942A000C9447000C9447000C9447006D
S11300100C9447000C9447000C9447000C94470040
S11300200C9447000C9447000C9447000C94470030
S11300300C9447000C9447000C9447000C94470020
S11300400C9447000C9447000C9447000C94470010
S11300500C94470011241FBECFE5D8E0DEBFCDBF0E
S113006010E0A0E6B0E0E6E2F1E102C005900D92F6
S1130070A03AB107D9F710E0A0EAB0E001C01D92A0
S1130080A03AB107E1F70E9496060C9491080C94EB
S113009000000F931F93CF93DF93C82FD62F8A01AD
S11300A0CA0160E670E00E948808282F392F2115C4
S11300B0310559F0C80167E670E00E948808282FCE
S11300C0392F2115310509F04BC0C43409F43CC063
S11300D0C53440F4C23401F1C33450F5C13409F0DD
S11300E0A0C00EC0C236C1F0C33620F4C13609F038
S11300F098C006C0C336E1F0C43609F092C024C0EB
S11301004AB321E030E0C90102C0880F991FDA9593
S1130110E2F7842B8ABB85C047B321E030E0C901F4
S113012002C0880F991FDA95E2F7842B87BB79C048
S113013044B321E030E0C90102C0880F991FDA9569
S1130140E2F7842B84BB6DC041B321E030E0C901E8
S113015002C0880F991FDA95E2F7842B81BB61C036
S1130160C8016EE670E00E948808282F392F2115F7
S1130170310559F0C80164E770E00E948808282F0F
S1130180392F2115310509F04CC0C43409F43DC0A0
S1130190C53440F4C234F9F0C33450F5C13409F025
S11301A040C00CC0C236B9F0C33618F4C136C9F524
S11301B005C0C336E9F0C436A1F527C04AB321E02F
S11301C030E0C90102C0880F991FDA95E2F78095E3
S11301D084238ABB26C047B321E030E0C90102C0B2
S11301E0880F991FDA95E2F78095842387BB19C09D
S11301F044B321E030E0C90102C0880F991FDA95A9
S1130200E2F78095842384BB0CC041B321E030E045
S1130210C90102C0880F991FDA95E2F780958423FB
S113022081BBDF91CF911F910F9108950F931F937D
S1130230CF93DF93C82FD62F8A01CA016AE770E0F3
S11302400E948808282F392F21153105A9F0C801EB
S11302506FE770E00E948808282F392F2115310597
S113026059F0C80164E870E00E948808282F392FEB
S11302702115310509F04BC0C43409F43CC0C53420
S113028040F4C23401F1C33450F5C13409F0AAC0BA
S11302900EC0C236C1F0C33620F4C13609F0A2C084
S11302A006C0C336E1F0C43609F09CC024C04BB389
S11302B021E030E0C90102C0880F991FDA95E2F706
S11302C0842B8BBB8FC048B321E030E0C90102C04E
S11302D0880F991FDA95E2F7842B88BB83C045B356
S11302E021E030E0C90102C0880F991FDA95E2F7D6
S11302F0842B85BB77C042B321E030E0C90102C042
S1130300880F991FDA95E2F7842B82BB6BC0C80172
S113031066E870E00E948808282F392F21153105DE
S1130320A9F0C8016AE870E00E948808282F392FD4
S11303302115310559F0C8016EE870E00E94880863
S1130340282F392F2115310509F04CC0C43409F484
S11303503DC0C53440F4C234F9F0C33450F5C1345F
S113036009F040C00CC0C236B9F0C33618F4C13627
S1130370C9F505C0C336E9F0C436A1F527C04BB3AF
S113038021E030E0C90102C0880F991FDA95E2F735
S1130390809584238BBB26C048B321E030E0C9019B
S11303A002C0880F991FDA95E2F78095842388BBF1
S11303B019C045B321E030E0C90102C0880F991F7C
S11303C0DA95E2F78095842385BB0CC042B321E023
S11303D030E0C90102C0880F991FDA95E2F78095D1
S11303E0842382BBDF91CF911F910F9108958434B0
S11303F009F43DC0853440F48234F9F0833450F577
S1130400813409F040C00CC08236B9F0833618F448
S11304108136C9F505C08336E9F08436A1F527C0D5
S11304202BB381E090E0AC0102C0440F551F6A95E4
S1130430E2F7BA0162276BBB089528B381E090E02C
S1130440AC0102C0440F551F6A95E2F7BA01622756
S113045068BB089525B381E090E0AC0102C0440F6D
S1130460551F6A95E2F7BA01622765BB089522B366
S113047081E090E0AC0102C0440F551F6A95E2F799
S1130480BA01622762BB0895843409F44EC08534EE
S113049040F4823431F18334B0F5813409F057C02B
S11304A00EC08236F1F0833620F4813609F04FC055
S11304B006C0833641F1843609F049C036C029B3F9
S11304C081E090E0062E02C0880F991F0A94E2F79B
S11304D030E08223932302C0959587956A95E2F7CD
S11304E0089526B381E090E0062E02C0880F991F7C
S11304F00A94E2F730E08223932302C0959587950E
S11305006A95E2F7089523B381E090E0062E02C0D5
S1130510880F991F0A94E2F730E08223932302C0E4
S1130520959587956A95E2F7089520B381E090E068
S1130530062E02C0880F991F0A94E2F730E0822346
S1130540932302C0959587956A95E2F708950895D7
S11305500F931F93CF93C82F8B01CB0160E670E0FC
S11305600E948808282F392F2115310551F0C80120
S113057067E670E00E948808282F392F211531057D
S113058031F5C43409F1C53440F4C234B9F0C3348C
S1130590C0F4C13409F04DC00EC0C23679F0C33680
S11305A020F4C13609F045C006C0C33651F0C43644
S11305B009F03FC009C08FEF8ABB3BC08FEF87BBF8
S11305C038C08FEF84BB35C08FEF81BB32C0C80108
S11305D06EE670E00E948808282F392F2115310516
S11305E051F0C80164E770E00E948808282F392F71
S11305F021153105F1F4C434D9F0C53438F4C234CA
S113060099F0C33498F4C134A1F40CC0C23661F03B
S1130610C33618F4C13669F405C0C33639F0C4369C
S113062041F406C01ABA05C017BA03C014BA01C00F
S113063011BACF911F910F9108958434D9F0853464
S113064038F4823499F0833498F48134A1F40CC0E2
S1130650823661F0833618F4813669F405C0833636
S113066039F0843641F406C06BBB089568BB089525
S113067065BB089562BB08958434D9F0853438F499
S1130680823499F0833498F48134A9F40CC082360E
S113069061F0833618F4813671F405C0833639F07D
S11306A0843649F406C089B3089586B3089583B3A4
S11306B0089580B308950895843409F1853438F495
S11306C08234A9F08334B8F48134E1F40CC0823666
S11306D071F0833618F48136A9F405C0833659F0D5
S11306E0843681F40CC08BB380958BBB089588B39A
S11306F0809588BB089585B3809585BB089582B3A2
S1130700809582BB0895843409F471C0853448F41B
S1130710823499F1833408F04DC0813409F083C0E8
S11307200FC0823651F1833620F4813609F07BC044
S113073007C0833609F43EC0843609F074C057C03C
S1130740413069F42BB381E090E0AC0102C0440F66
S1130750551F6A95E2F7BA01622B6BBB08952BB360
S113076081E090E0AC0102C0440F551F6A95E2F7A6
S1130770BA01609562236BBB0895413069F428B3D4
S113078081E090E0AC0102C0440F551F6A95E2F786
S1130790BA01622B68BB089528B381E090E0AC01F4
S11307A002C0440F551F6A95E2F7BA0160956223AF
S11307B068BB0895413069F425B381E090E0AC0151
S11307C002C0440F551F6A95E2F7BA01622B65BB5C
S11307D0089525B381E090E0AC0102C0440F551F99
S11307E06A95E2F7BA016095622365BB08954130CA
S11307F069F422B381E090E0AC0102C0440F551FBC
S11308006A95E2F7BA01622B62BB089522B381E0D4
S113081090E0AC0102C0440F551F6A95E2F7BA019B
S11308206095622362BB0895EF92FF921F93CF936A
S1130830DF9300D000D0CDB7DEB7182F8EE890E05C
S11308409A83898384E890E09C838B83E62EFF243B
S1130850F701E170F070EE0FFF1F81E090E08C0F64
S11308609D1FE80FF91F40815181812F60E00E9494
S11308701601F701E270F07081E090E08C0F9D1F8B
S1130880E80FF91F40815181812F61E00E94160118
S1130890F701E470F070F595E795F595E795EE0F9F
S11308A0FF1F81E090E08C0F9D1FE80FF91F40812E
S11308B05181812F62E00E94160198E0E922FF2411
S11308C0F701F595E795F595E795F595E795EE0F1D
S11308D0FF1F81E090E08C0F9D1FE80FF91F4081FE
S11308E05181812F63E00E9416010F900F900F90A9
S11308F00F90DF91CF911F91FF90EF900895EF92A9
S1130900FF921F93CF93DF9300D000D0CDB7DEB713
S1130910182F8EE890E09A83898384E890E09C8382
S11309208B83E62EFF24F701E170F070EE0FFF1FBA
S113093081E090E08C0F9D1FE80FF91F40815181E9
S1130940812F64E00E941601F701E270F07081E0EB
S113095090E08C0F9D1FE80FF91F40815181812F7A
S113096065E00E941601F701E470F070F595E795D3
S1130970F595E795EE0FFF1F81E090E08C0F9D1F2A
S1130980E80FF91F40815181812F66E00E94160112
S113099098E0E922FF24F701F595E795F595E795A9
S11309A0F595E795EE0FFF1F81E090E08C0F9D1FFA
S11309B0E80FF91F40815181812F67E00E941601E1
S11309C00F900F900F900F90DF91CF911F91FF9098
S11309D0EF9008956F70843451F1853438F4823483
S11309E0C1F08334E8F4813441F50CC0823689F0D7
S11309F0833618F4813609F505C0833689F08436C8
S1130A00E1F415C08BB3807F8BBB8BB3682B6BBBBE
S1130A10089588B3807F88BB88B3682B68BB08952A
S1130A2085B3807F85BB85B3682B65BB089582B38E
S1130A30807F82BB82B3682B62BB08956295607F1E
S1130A40843451F1853438F48234C1F08334E8F4C9
S1130A50813441F50CC0823689F0833618F481362E
S1130A6009F505C0833689F08436E1F415C08BB3EB
S1130A708F708BBB8BB3682B6BBB089588B38F705F
S1130A8088BB88B3682B68BB089585B38F7085BB1A
S1130A9085B3682B65BB089582B38F7082BB82B324
S1130AA0682B62BB08951F93CF93DF93182FC0E682
S1130AB0D0E060E0AE010E944900812F61E0AE0108
S1130AC00E944900812F62E0AE010E944900812FFB
S1130AD063E0AE010E944900DF91CF911F91089518
S1130AE01F93CF93DF93182FC0E6D0E064E0AE01EC
S1130AF00E944900812F65E0AE010E944900812FC8
S1130B0066E0AE010E944900812F67E0AE010E94B9
S1130B104900DF91CF911F91089582E460E040E99C
S1130B2050E00E9416018FE99FE00197F1F700C0A1
S1130B30000082E460E045E950E00E9416018FE97C
S1130B409FE00197F1F700C0000008951F93CF9331
S1130B50DF93182F682F62956F7081E40E941E0541
S1130B60C5E9D0E082E461E0AE010E9416010E9472
S1130B708D0581E4612F0E941E0582E461E0AE01CF
S1130B800E9416010E948D058FEC97E00197F1F702
S1130B9000C00000DF91CF911F910895CF93DF93A0
S1130BA08FEF91EEA4E081509040A040E1F700C0A7
S1130BB00000C9E9D0E081E464E0AE010E9449008C
S1130BC081E465E0AE010E94490081E466E0AE0183
S1130BD00E94490081E467E0AE010E94490082E47A
S1130BE060E0AE010E94490082E462E0AE010E942E
S1130BF0490082E461E0AE010E94490082E462E0BF
S1130C0045E950E00E94160182E00E94A605AFE18A
S1130C10BEE41197F1F700C0000088E20E94A60527
S1130C208FEC97E00197F1F700C000008EE00E947E
S1130C30A605AFECB7E01197F1F700C0000081E022
S1130C400E94A6058FE19EE40197F1F700C0000021
S1130C5086E00E94A605AFECB7E01197F1F700C05B
S1130C600000DF91CF9108951F93CF93DF93182F46
S1130C70682F62956F7081E40E941E05C0E9D0E080
S1130C8082E461E0AE010E9416010E948D0581E4B8
S1130C90612F0E941E0582E461E0AE010E941601EC
S1130CA00E948D058FEC97E00197F1F700C00000DA
S1130CB0DF91CF911F910895CF93DF93EC01888149
S1130CC0882331F021960E94340689918823D9F72C
S1130CD0DF91CF91089581E00E94A6058FE19EE403
S1130CE00197F1F700C000000895282F2150223009
S1130CF070F4613170F4662371F0813019F4962F29
S1130D0091580AC0823041F4962F915405C090E85E
S1130D1003C090E801C090E8892F0E94A6058FECDB
S1130D2097E00197F1F700C00000089588E361E0BF
S1130D300E9470070E94CE050E946B0681E061E06C
S1130D400E94750681E60E94BF078FEF99E6A8E12D
S1130D5081509040A040E1F700C00000EFCF87B37E
S1130D60806B87BB8DB181658DB9C49A0895C49891
S1130D708FB9779BFECF8FB10895CF93DF93EC01AA
S1130D80C4988881882331F021960E94B7068991FE
S1130D908823D9F780E00E94B706C49ADF91CF91E7
S1130DA008950F931F93CF938C01C498C0E08FEFE5
S1130DB00E94B706F801EC0FF11D8083CF5F8823F2
S1130DC0B1F7CF911F910F9108956E9ABE9A08952D
S1130DD08FB9779BFECF8FB108950F931F93CF9355
S1130DE08C01C0E08FEF0E94E806F801EC0FF11DC2
S1130DF08083CF5F8823B1F7CF911F910F9108951E
S1130E00CF93DF93EC018881882331F021960E94EF
S1130E10E80689918823D9F780E00E94E806DF91EB
S1130E20CF9108959B01AC0111B860E072E18AE7AB
S1130E3090E00E946608DA01C9014097A109B1094E
S1130E40B695A7959795879580B90895A39A95B374
S1130E5088E0892785BB089584E286BF86B78068C9
S1130E6086BF06B607FEFDCF81B1887F883011F0BA
S1130E700E9426070895962F9170880F982B93B996
S1130E8084E086BF11B886B7806886BF06B607FEC1
S1130E90FDCF662329F481B1887F883139F4089520
S1130EA0613031F481B1887F803411F00E942607CB
S1130EB0089583B984E086BF11B886B7806886BF79
S1130EC006B607FEFDCF81B1887F883211F00E94FB
S1130ED02607089584E186BF86B7806886BF089593
S1130EE06170880F682B62B9089584E486BF86B761
S1130EF0806886BF06B607FEFDCF81B1887F803645
S1130F0011F00E94260784E486BF86B7806886BFF6
S1130F1006B607FEFDCF81B1887F803611F00E94AE
S1130F20260783B108951F93CF93DF93182FEB0106
S1130F300E942C07812F60E00E943B078881882350
S1130F4031F021960E94590789918823D9F70E948C
S1130F506A07DF91CF911F910895CF93DF93D82F24
S1130F60C62F0E942C078D2F60E00E943B078C2F18
S1130F700E9459070E946A07DF91CF91089594E473
S1130F8096BF96B7906896BF06B607FEFDCF83B9A5
S1130F9084E486BF11B886B7806886BF06B607FEAC
S1130FA0FDCF0895CF93C82F0E942C078C2F61E0AA
S1130FB00E943B0784E486BF86B7806886BF06B676
S1130FC007FEFDCF81B1887F803611F00E9426078D
S1130FD00E946A0783B1CF910895EF92FF920F9315
S1130FE01F93CF93DF937C01062F84EC86BF06B654
S1130FF007FEFDCF81B1887F803611F00E9426075D
S1131000C0E010E001501040D4EC15C0D6BF06B6C5
S113101007FEFDCF81B1887F803839F483B1F701B1
S1131020EC0FF11D8083CF5F06C081B1887F803AC9
S113103039F00E9426078C2F90E08017910734F333
S1131040F701EC0FF11D1082DF91CF911F910F91E9
S1131050FF90EF900895DC01CB01880F991FAA1F20
S1131060BB1F880F991FAA1FBB1F9C01AD01220F34
S1131070331F441F551F220F331F441F551F60E0A9
S113108072E18AE790E00E9466082150304030BD4A
S113109029B98AB188618AB986E880BD08955D9BC3
S11310A0FECF8CB908955F9BFECF8CB10895CF938A
S11310B0DF93EC018881882331F021960E944F0848
S11310C089918823D9F7DF91CF910895A1E21A2E4F
S11310D0AA1BBB1BFD010DC0AA1FBB1FEE1FFF1FD8
S11310E0A217B307E407F50720F0A21BB30BE40B28
S11310F0F50B661F771F881F991F1A9469F760956F
S11311007095809590959B01AC01BD01CF01089528
S1131110FB01DC018D91019080190110D9F3990B29
S10911200895F894FFCFCE
S11311264F5554505554006F757470757400494E7C
S113113650555400696E70757400484947480068F4
S11311466967680031004C4F57006C6F77003000B8
S113115668696768004C4F57004F55545055540002
S9030000FC
